:020000040800F2
:100000005028002079360008B1A1000865360008A4
:1000100000000000000000000000000000000000E0
:100020000000000000000000000000006937000828
:100030000000000000000000F136000871640008B4
:10004000C1380008C1380008C1380008C1380008AC
:10005000C1380008C1380008C1380008C13800089C
:10006000C1380008C1380008C1380008C13800088C
:10007000C1380008C1380008C1380008C13800087C
:10008000C1380008C1380008C1380008C13800086C
:10009000C1380008C1380008C1380008C13800085C
:1000A000C1380008C1380008C1380008C13800084C
:1000B000C1380008C1380008C1380008C13800083C
:1000C00002B4714649084900095C49008E4402BCEB
:1000D0007047C04603B47146490840004900095EB4
:1000E00049008E4403BC704703B471464908400080
:1000F0004900095A49008E4403BC7047002934D096
:100100000123002210B488422CD301242407A142E9
:1001100004D2814202D209011B01F8E7E400A142A6
:1001200004D2814202D249005B00F8E7884201D341
:10013000401A1A434C08A04202D3001B5C08224319
:100140008C08A04202D3001B9C082243CC08A0428A
:1001500002D3001BDC082243002803D01B0901D076
:100160000909E3E7100010BC704701B5002000F05A
:100170005FF802BD0029F8D003B5FFF7C1FF0EBC40
:100180004243891A1847C046002941D010B40400E0
:100190004C40A44601230022002900D549420028F2
:1001A00000D5404288422CD301242407A14204D226
:1001B000814202D209011B01F8E7E400A14204D206
:1001C000814202D249005B00F8E7884201D3401A1D
:1001D0001A434C08A04202D3001B5C0822438C083F
:1001E000A04202D3001B9C082243CC08A04202D3A9
:1001F000001BDC082243002803D01B0901D0090999
:10020000E3E710006446002C00D5404210BC704764
:1002100001B5002000F00CF802BDC0460029F7D05F
:1002200003B5FFF7B3FF0EBC4243891A1847C04617
:100230007047C0461C2101231B04984201D3000CC7
:1002400010391B0A984201D3000A08391B09984249
:1002500001D30009043902A2105C40187047C0465F
:10026000040302020101010100000000000000007F
:10027000002B15D1002A13D1002906DB01DC002850
:1002800006D00020C043410802E08021090600207A
:1002900007B4024801A14018029003BD95FFFFFF7B
:1002A00003B4684601B5029800F0F4F8019B9E463D
:1002B00002B00CBC7047C046002B11D1002A0FD1F0
:1002C000002900D1002802D00021C943080007B44A
:1002D000024802A14018029003BDC04655FFFFFF2F
:1002E00003B4684601B5029800F065F8019B9E468C
:1002F00002B00CBC7047C046D0400B00D1409C46B9
:10030000203AD34018435242634693401843704703
:100310009140030090409C46203A9340194352423A
:100320006346D3401943704710B5002903D1FFF746
:1003300081FF203002E00800FFF77CFF10BDC046BF
:1003400002780B78002A03D0013001319A42F7D0AD
:10035000D01A704703000A7801311A700133002A5D
:10036000F9D170470023C25C0133002AFBD1581E2B
:100370007047F7B5040C0D0091B20F0061438C4635
:100380000600019383B2100C5F43444358433B0C77
:1003900060441B18994202D98021490264180199CE
:1003A00055437143180C04191B04BFB24919D819DD
:1003B000091903B0F0BDF0B506000F0015001C00D0
:1003C00085B08B4263D801D1824260D821002800D9
:1003D000FFF7AAFF390000903000FFF7A5FF009B50
:1003E00021001B1A1A0028000393FFF791FF0090C9
:1003F0000191B94245D801D1B04242D8009B019C3D
:1004000001200021039AF61AA741FFF781FF04009B
:100410000D00039B002B2BD0019B009ADB0750089B
:100420001843019B5908039B9C46B9422CD801D123
:10043000B04229D832003B00121A8B410126921893
:100440005B410027B6185F4101235B429C44634631
:10045000002BEAD130003900039AFFF74DFF039AD1
:10046000A4197D4106000F00FFF752FF241A8D41A9
:100470000A9B002B01D01E605F602000290005B0A0
:10048000F0BD00240025C4E7B6197F41DCE7002455
:100490000025EDE7F7B517001E0004000D0000F081
:1004A00011F802000B000090019138003100FFF7B5
:1004B00060FF241A8D41089B009801991C605D60C3
:1004C00003B0F0BDF0B504000D001000190085B0B8
:1004D000002D11DB002B00DA82E026002F00140033
:1004E0001D00BD4204D800D080E0B44200D87DE0B9
:1004F0000020002105B0F0BD00236242AB4100297D
:1005000068DB16001F0004000D00BD4278D801D141
:10051000B44275D801235B42290020000393FFF702
:1005200003FF390002903000FFF7FEFE029B290016
:100530001B1A1A0020000293FFF7EAFE04000D00C8
:10054000B94255D801D1B04252D801200021029AB7
:10055000FFF7DEFE361BAF4100900191029B002B9E
:100560002CD0EB0760081843029B69089C460124C5
:100570000025B94241D801D1B0423ED832003B00FB
:10058000121A8B4192185B4112196B4116001F0021
:1005900001235B429C446346002BEAD1009C019DF1
:1005A000029A30003900FFF7A7FE029AFFF7B0FE6B
:1005B000A4197D41241A8D41009401950098019958
:1005C000039B002B00D195E703000C00002158424B
:1005D000A1418FE716001F00002544428D4180E7AE
:1005E00026002F00002544428D418EE7002393E72B
:1005F0000022002300920193B0E7B6197F41C7E7BC
:1006000000200021E0E7000013B508001C00064BA5
:1006100001A90A801870022204480BF092F8200009
:1006200006F0B6FC13BDC046260F0020240F0020A4
:1006300010B5002902D0024807F0F2FE10BDC046F6
:1006400022C9000830B5012587B002AC0022002382
:1006500021001A4806F008FA002810D00122524260
:10066000D3171749009201931648023207F082FD12
:10067000011E02D0144807F0D3FE07B030BD134A64
:10068000237A1068002807D11149012B00D11149A4
:10069000114807F0C5FED8E7290012799140026998
:1006A00012680A4204D1012B04D083681B6903E05D
:1006B000012BFAD08368DB689847C6E7B0010020B9
:1006C000000000201002002056C90008140000207D
:1006D0004AC9000847C900084EC9000870B588B06B
:1006E00001AA1100114B31CB31C1114E114831001B
:1006F00003F080FB104B0100180007F091FE01246D
:100700006442E5172B0004A92200300006F0ACF982
:100710006B46197D0948022904D16B46198B08489C
:1007200049BA89B207F07CFEECE7C04650BF00082A
:10073000E0010020A8BB00087AC9000891C90008A0
:10074000A8C9000803000348042B02D8024A9B00F2
:1007500098587047BEC90008A4BF0008F0B500242F
:1007600085B003AB1C8001940094164802ABDD1CDD
:10077000836829001B6A03AA9847011E08D0124803
:1007800007F04EFEFA200021800007F03FF8ECE76A
:1007900002AB1E795F79019B2D789E4204D1BC4249
:1007A00002D1009BAB42EDD02800FFF7CBFF074CF6
:1007B0000100330020003A0007F032FE3C000196B1
:1007C0000095D2E7A8BB0008C6C90008FEC900080A
:1007D00010B5064B1878FFF7B5FF054A054C010028
:1007E00013782000527807F01BFE10BD260F002062
:1007F000240F0020EDC90008F0B57C4B97B00BAA80
:1008000013CB13C20C2200210FA80AF0B6FF10234D
:100810003422012446200E9302AB9B181C7002ABBD
:1008200000212A3AC0180AF0A8FF714B4421129304
:10083000022302AA52181370452202AB9B181C70A7
:100840006C4D28000AF095FC002806D16A482968FA
:1008500007F0E6FD002017B0F0BDAE6821002800CB
:10086000F3689847011E01D06448F1E728007368D7
:100870009847011E6248EBD1624D286800282AD0B3
:100880000AF077FC002803D12B685F481968DFE77E
:10089000EB8829799C46A02362461B031A432868EB
:1008A0000892260083688E400993036967461D6895
:1008B0002A00B243274201D032002A431A60099B22
:1008C000089A1B689847011E05DA504807F0A8FDF2
:1008D00000224C4B1A604E494E480AF0B0FC4E4C78
:1008E0004E49200007F0B6FB424E4D4930000BAA9E
:1008F00003F080FA030001001C3303D1494807F0DC
:100900009FFDA7E7484807F08BFD01225242D3170D
:100910004649009201932000023207F02BFC011E91
:10092000434800D094E7002400250222414F03925F
:10093000FF320491029101910091069407953900CC
:100940003D4B3E48FF3206F037FC002802D13C48C0
:1009500007F076FD00220694079504920224029285
:10096000019200928022374B374938480394920015
:1009700006F022FC002802D1354807F061FDB3687B
:100980003000244A33495B6A9847334807F058FDE2
:1009900000240127661C3300382102AA3B4052186C
:1009A00013702E4B134D01932D4B280000930EA96D
:1009B00001225242D31703F0BBF90021294806F067
:1009C00025FF482202AB64BA9B181C80B4B20023F6
:1009D000FA220193009328000023920012A903F049
:1009E000A7F900211F4806F011FFD3E75CBF0008FC
:1009F00045230100A8BB00082FCA00084ACA000806
:100A000066CA00081400002089CA0008A4CA0008A9
:100A1000D1070008700900201002002045060008D8
:100A2000B0010020CECA0008EACA00080000002079
:100A300004CB000850110020DD0600082003002030
:100A400026CB00085D070008500F00205802002048
:100A50003FCB00080906000860CB00086FCB0008F8
:100A600031060008C4090000F8B50A684B6804683C
:100A70004568002D0DDA002B1DDA802700263F0681
:100A8000361BAF419F4202DC15D1964213D900209C
:100A90001BE026002E430ED0002B02DC0BD1002AD7
:100AA00009D00126094F7642361BAF41BB42EEDC2E
:100AB00001D1B242EBD8A4185D410460456083685F
:100AC0008A689B18836000F05DF9F8BDFFFFFF7F27
:100AD00010B5EFF3108472B6102204490AF031FE0B
:100AE000002C02D162B6BFF36F8F10BDE803002067
:100AF0001FB50C00012805D004281ED01620404246
:100B000004B010BD0AF0E6FC0023124AFFF7D4FB44
:100B1000114B206061605343A3606846FFF7D8FF24
:100B200069462000FFF7A0FF002804D11022200012
:100B30000A490AF006FE0020E2E70AF0CBFC002397
:100B4000044AFFF7B9FB044B206061605343A36084
:100B5000F1E7C04610270000A086010030BF000862
:100B6000DFB50C00012828D1154B8A689A4224D899
:100B70000AF0B0FC0023134AFFF79EFB0027464211
:100B80008F41114B68465A4300960197029200F03C
:100B9000F9F821006846FFF767FFEFF3108472B69B
:100BA0001022694609480AF0CCFD002C02D162B639
:100BB000BFF36F8F002004B0D0BD16204042FAE78B
:100BC000FFC99A3B102700006079FEFFE803002070
:100BD00010B5024B1B68984710BDC0461C00002092
:100BE000014B18607047C0461C00002030B585B02E
:100BF00004000D001022002168460AF0BEFD6A467E
:100C000002239370044B2A0021006846019307F0E9
:100C10006DFD05B030BDC046D10B0008F7B504002E
:100C20000D001E00019206F037FE03000AF09CFE44
:100C3000054F32003B5001992800A0470AF094FE6E
:100C4000385802F039FDC04608000000F0B50369CD
:100C500089B001330193C3684169013B0A00002751
:100C60000593CB1700213A4E0400B6185F410800E7
:100C70000223019A934248410B000200B61A9F4199
:100C80008F425BDA01213348C822494280197941F9
:100C900000235200FFF7ECFA0290029B2E4D0491C4
:100CA0005D43019BAD19022B4ED80923A068039325
:100CB00023683C221E00DF17C1170023FFF759FBF2
:100CC000646802000B002000E117801859413C22A3
:100CD0000023FFF74EFB6E2480197941FF346C43EB
:100CE000AB08E418059B0690079164212800E418DE
:100CF000FFF704FA039B241A9C469920019E0521C4
:100D0000664470430230FFF7F9F900232618134AAE
:100D100002980499FFF72DFB0027012380197941E0
:100D20000F4A5B428018594100230E4AFFF721FB0E
:100D3000069B079CC018614109B0F0BDC822002382
:100D4000300039005200A5E703235B42AEE7C046FE
:100D50006C07000071FEFFFF70FEFFFFB13A02005A
:100D60009405F5FF8051010010B5FFF76FFF0300F8
:100D700000240AF0F9FD024A8450180010BDC04654
:100D80000C000000F8B5040085682248854217DD94
:100D900021492800FFF7F8F9226863688446C117E3
:100DA000002B26DC01D1002A23D112184B412260EE
:100DB00063601A48634658434019A0600120F8BD9B
:100DC000002DFBDA1449401BFFF798F900238446F5
:100DD000206861686246994216DA802700263F063D
:100DE00036184F41BB4202DC0ED1B2420CD9002072
:100DF000E5E701260A4F7642B61A9F41B942F6DC72
:100E0000D3D1B042D1D9F2E7801A99412060616014
:100E10000148CFE7FFC99A3B00CA9A3B003665C438
:100E2000FFFFFF7F802102200A4B0905DA6B82B0A9
:100E30000A43DA63DA6B0A4007490192019A4A6869
:100E4000824300204A60DA6B04490A40DA6302B048
:100E50007047C0460010024000580140FFFFFFF7F6
:100E600080220D4B9200196882B00A431A608022DA
:100E7000196852000A4380211A60084B084A490544
:100E80001A60084BDA6B0A43DA63DB6B0B400193A1
:100E9000019B02B07047C04600200240DC000020E9
:100EA000006CDC020010024070B505000E00064B1D
:100EB0001C68002C01D1200070BD31002000A84723
:100EC0000028F9D16469F4E780090020F8B506002C
:100ED0000C0000230B4F3D68002D05D1002B0CD1D9
:100EE0003C6000202660F8BD31002868FFF728FA32
:100EF000002804D02B006D69EEE75C61F1E77820F3
:100F00004042F0E78009002010B5034B01001800B3
:100F1000FFF7CAFF10BDC0465D0F00087FB5050092
:100F200008002979EC1804290FD0082910D00025D1
:100F30002E00022900D125880749029503960094C6
:100F400008F0C6F9002004B070BD00262568F3E75C
:100F500025686668F0E7C046B3CB000870B50D00A1
:100F60000400030002680549280008F0B1F92A00CE
:100F70002000034907F028FF70BDC046D5CB00080C
:100F80001D0F000810B5040005F028FB03490200FE
:100F9000200008F09DF9002010BDC0462ACC0008B2
:100FA00037B513000022050001920A21586801AAF2
:100FB00001F066FD019C002C0BD1C343DB171840E8
:100FC0000A220023C117FFF7D4F906F01FFC200006
:100FD0003EBD22002800024908F092F9019CF6E784
:100FE00056CC0008F0B58DB00F00160008900AF03E
:100FF00071FA0A220023FFF75FF905000C00012FA8
:1010000007D12A0023002649089808F061F900203A
:1010100013E0766823483100FFF792F900280ED0DC
:1010200031002148FFF78CF9002808D008983200D9
:101030001E4908F065F9052040420DB0F0BD2800BA
:10104000210000231A4AFFF713F90A900B911000B0
:101050001900184A0023FFF70BF905000C001000D7
:101060001900154A0023FFF703F907001000FA22C0
:101070000991920019000023FFF7FAF80F4E06922B
:101080000793099B04900591039331000A9A0B9BE7
:10109000089802970095019408F01AF9B7E7C0463E
:1010A0007FCC000890CC000893CC00089CCC0008B2
:1010B000005C260580EE360060EA0000B4CC000833
:1010C00010B5034A034908F003F9002010BDC046DB
:1010D00046CD00084DCD000807B500236A460090B4
:1010E00069460348137106F02BFD6B4618790EBD57
:1010F000BF8E000810B5040005F056FA074902003B
:10110000200008F0E5F82000054908F0E1F821008A
:10111000044806F02DFD002010BDC04688CD000813
:10112000A7CD0008291100080300F0B5AC338FB03B
:101130000C001D6806000AF0ACF803000AF014FC6D
:10114000214A1158214A8E4200D0214A002B00D159
:10115000204B0E27200000931F49330008F0B8F8F9
:10116000B26AF36A307BF7571C49009201933B0047
:101170000200200008F0ACF806A92022300005F09B
:1011800067FF17490200736F200008F0A1F83000D4
:1011900005A90AF08CF8021E05D02000114908F0BC
:1011A00097F80FB0F0BD6420059E2900AF1B78436F
:1011B000FEF7A4FF330002902A0020000A4901959F
:1011C000009708F085F8ECE70800000010EF000831
:1011D000F9D70008B1CD0008B4CD0008C0CD000893
:1011E000ECCD000803CE000830CE0008F0B5002793
:1011F000802693B0390007900AAC1C220BA80AF095
:10120000BCFA1A22202120000AF0B7FA07990F48E9
:1012100006F0AEFC0E4D3601310009AA28000AF096
:101220003AF86423099A0B49B01A4343DB0A059341
:101230000390029207983B002A00049601960094BE
:1012400008F046F8380013B0F0BDC0465912000847
:10125000501B00207CCE00080300F0B5AC338BB0EF
:1012600004001F68069109A90AF021F8021E05D0A2
:101270001049069808F02CF80BB0F0BD20000AF0D9
:1012800008F805006420099E3900BB1B58430793EA
:10129000FEF734FF002D00D1074DBB1B04900293D5
:1012A00022002B000549069803970196009708F045
:1012B0000FF8E1E703CE0008B1CD0008C5CE000865
:1012C000130070B5102205000021586807F07CF962
:1012D0000400FFF701FF002807D1220028000D4974
:1012E00008F00EF81620404270BD0AF03DFB0A4B94
:1012F0001B589C4204D12800084908F001F8F1E786
:10130000200006F077F828002200054907F0E0FFEA
:101310000020E9E729CF00080800000044CF0008BA
:101320006CCF0008130070B510220500002158682A
:1013300007F04AF90400FFF7CFFE002807D122008A
:1013400028000D4907F0DCFF1620404270BD0AF06E
:101350000BFB0A4B1B589C4204D12800084907F09C
:10136000CFFFF1E7200006F05BF9280022000549D5
:1013700007F0AEFF0020E9E729CF000808000000D1
:10138000ABCF0008D1CF0008130070B510220500C4
:101390000021586807F018F90400FFF79DFE0028A7
:1013A00007D1220028000D4907F0AAFF162040426D
:1013B00070BD0AF0D9FA0A4B1B589C4204D1280090
:1013C000084907F09DFFF1E7200002F075F92800B9
:1013D0002200054907F07CFF0020E9E729CF00083B
:1013E000080000000CD0000831D0000810B50C0037
:1013F000002108F054FA002800D000680023034AB6
:101400002060E3606260A36010BDC04651D1000857
:1014100010B50C00002108F048FA002800D0006840
:101420000023034A2060E3606260A36010BDC046F1
:1014300051D1000870B506005068150008F045FA53
:10144000041E07D1300010496A6807F059FF133CA9
:10145000200070BD09F08DFE002806D00B49300039
:101460006A6807F029FF0024F2E7200009F076FE01
:10147000041E06D00300064930006A6807F040FFEA
:10148000E6E70449EBE7C04669D000087ED00008D3
:10149000A0D00008CDD00008F0B593B0040005A896
:1014A0000291039205F0FCF824234343059A082196
:1014B000D31820002B4A019307F0F3FE059D019BF2
:1014C0009D4202D3002013B0F0BD2E68002E02D042
:1014D0003378002B06D12B003021234A06A806F0D2
:1014E000CFFF06AE029B022B08D1039B3000596848
:1014F0000AF094F9002801D12435E0E733000821EF
:1015000020001A4A07F0CDFE280009F032FE184BE1
:10151000002800D0174B08212000174A07F0C1FE11
:101520002B6A002BE8D01E68002EE5D03368002B14
:10153000E2D008212000114A07F0B3FE00233268F0
:101540005F1C9A4205D8082120000D4A07F0A9FE29
:10155000D2E7BB00F358082120000A4A07F0A1FE99
:101560003B00ECE700D100080AD100080FD10008C9
:10157000F7D00008F1D0000877D0000814D1000897
:1015800065CE000810D1000830B50C00256885B084
:101590000B694A690395656806490295A568521862
:1015A0000195E46804490133009407F091FE05B009
:1015B00030BDC0466C0700009BD10008F7B513781A
:1015C00005000E001700541C3A2B15D00A223800D3
:1015D00001A906F07FFF019CB060BC4209D02378CE
:1015E0003A2B06D10134172806D91649280007F0EE
:1015F00087FE16204042FEBD23783A2B11D10134DC
:101600000A22200001A906F065FF019A030030605C
:10161000A242EED010780028EBD10B493C2BEAD93E
:10162000E4E70A22200001A906F054FF019B706044
:10163000A342DED01A783A2ADBD104495C1C3B284D
:10164000DED9D3E7BCD10008DAD10008CAD100083E
:10165000F0B593B00D00040004A901201700FFF7B6
:1016600047FA09A904A806F0F5FD032D54D17D68B9
:101670000A22280003A906F02DFF039E0190B5421F
:1016800026D033782D2B23D101360A22300003A92E
:1016900006F020FF039B05009E4219D01A782D2AE0
:1016A00016D1013D28490B2D0FD85E1C0A223000AF
:1016B00003A906F00FFF039B9E4209D01B78002B65
:1016C00006D1431E1E2B0BD92049200007F018FE1F
:1016D000200007F049FE16256D42280013B0F0BD2A
:1016E0001B4A019B9446BA6863440E930D950C9077
:1016F000200009A9FFF762FF0028E9D109A8FFF738
:1017000033FB0490059101300AD1013108D120004A
:10171000104907F0F5FDDEE7022DD9D17A68E7E739
:1017200000230693012004A9FFF71AFA051E05D02D
:1017300002000949200007F0E3FDCCE7200009A9D9
:10174000FFF722FFC9E7C046EAD10008F9D1000837
:1017500094F8FFFF06D200082FD20008F7B5170053
:101760000191050010220021786806F02DFF019BF1
:101770000400022B07D8202308212800234A07F061
:1017800090FD236816E00A220021B86806F01CFFCD
:101790000821C3B21D4AC6B2280007F082FD019B92
:1017A000032B19D1102E0CD0202EEAD0082E0BD1ED
:1017B0002378DBB208212800154A07F072FD0020CB
:1017C00009E023889BB2F5E728000821114A07F0B9
:1017D00068FD16204042FEBD10220021F86806F088
:1017E000F3FE0821070003000B4A280007F059FD0B
:1017F000102E06D0202E07D0082EE5D1FFB227707C
:10180000DDE7BFB22780DAE72760D8E774D20008A7
:101810009FD2000889D20008B0D20008F0B500239A
:101820008BB00392012501220593464B06001A60F6
:1018300002916D4202F096F820232C000193424A57
:101840000399029802F0B2F8431C0ED13F496B1C79
:1018500007D06B461B790193DB080293631C53D1BD
:101860003B49300007F04CFD14E0732816D0772870
:1018700020D061280ED1374F1021386805AA01F019
:10188000FFF8059B0500002BD9D0334930003A689A
:1018900007F036FD162040420BB0F0BD2D4F002161
:1018A000386805AA01F0ECF8059B0400002BC6D0AF
:1018B0002A49EBE7274F0021386805AA01F0E0F834
:1018C000059B0190002BBAD02549DFE7019910292B
:1018D00021D0202925D008292CD1117819700299FE
:1018E00052185B180299A14202D881181029EDD92B
:1018F0002700102C00D9102729003B00300006AA31
:1019000000F09EFF1035E41B002C19D002992A002C
:1019100006AB481BE6E7118889B21970090A5970AD
:10192000DDE711680F0A19705F700F0C090E9F70C8
:10193000D970D4E7082130000A4A07F0B2FCA9E7C1
:101940002000A9E77C000020FED2000805D3000893
:1019500022D30008540C0020C4D20008D7D20008BB
:10196000EAD2000889D2000870B50F4E04000D00BD
:10197000327800290ED0002A03D00C4907F0C0FCB1
:1019800070BD012333702000094907F0A1FC012339
:10199000337003E0012353403370F4D12900200059
:1019A00007F0FDFCECE7C046270F00203CD3000801
:1019B00077D30008F7B505000C0020278B1801939A
:1019C000019BA34200D1F7BD394A23781178182929
:1019D00022D1112B20D10026364C28003649167012
:1019E000226807F075FC28003100FFF7BDFF334B7C
:1019F0001878B042E7D10125314A23681168042BD9
:101A00002FDC002801D02360116099072FD11268C4
:101A100013681BBA1360D6E713701A00303A294EC8
:101A2000092A04D91A00BA43413A052A04D832686F
:101A300025498B54013232603368022B0FD11022BA
:101A40000021214806F0C0FD204A136818700133B8
:101A50001360184A136801331360002333600134A4
:101A6000AEE70868043B00BA01C12800C7E718497F
:101A70000B4004D50421013B49420B430133022BA7
:101A800004D1126813885BBA9BB2C3E7032B9AD1C7
:101A9000FF24106824040268130C11042140DBB2F7
:101AA0000B43FF2109020A40134303608BE7C04642
:101AB000280F002088090020A1D30008290F00204A
:101AC0008C090020840900202A0F002090090020A2
:101AD000030000800023F7B50E001400254A264FAE
:101AE0001360264A00903B7013606568012E20D970
:101AF000234B022219002800019309F062FE002303
:101B0000984202D1AB785A1E9341ED180222280068
:101B10001C4909F056FE002804D101233B7004340F
:101B2000013EE2E728000199FEF70AFC002814D1E3
:101B3000043400221100606806F046FD0022124BBA
:101B400011001860606806F03FFD104B10491860E6
:101B50000098FFF709FF0020FEBD2B782D2BE8D160
:101B60006B78002BE5D02A000A49009807F0B0FBFB
:101B7000D5E7C04684090020290F002088090020ED
:101B8000BBD30008BED30008900900208C090020B8
:101B9000B5190008C1D3000837B50A4D280009F06F
:101BA000E8FA00280AD00024074A01232900074840
:101BB0001268009400F0ACFE20003EBD13204042AD
:101BC000FBE7C0463CBB000814C10008B4BD0008D8
:101BD00010B544680EC44021426851631100383189
:101BE0001161130008214033116211005362002378
:101BF0001468B8319362D362136353619361D36104
:101C00000B60A368002B05D09B6C002B02D020003A
:101C100004499847A3689B6A002B01D0200098478D
:101C2000002010BDA18F000810B504008168183194
:101C300001F0C6F9A1682000024A183101F056F9F6
:101C400010BDC0463CD500089E2370B582689B003D
:101C5000D3580400DB071CD4406803685B689847CE
:101C6000051E04D1E06808F0BCF9A3681D75A368DF
:101C70005B6C002B02D0290020009847A82300218C
:101C800009F072FEA2689B00D150034B185801F076
:101C900013FD10256D42EAE70800000010B5024967
:101CA00007F020FA10BDC04665CE00089E239B00B9
:101CB00010B5C018002904D08021090107F00AFAE4
:101CC00010BD024907F00AFAFAE7C046FFF7FFFF26
:101CD000F0B5ADB004005422002117A809F04DFD65
:101CE00000230B930C93A36820005633089307F04E
:101CF00017FF200007F051FE002802D16069FFF7AE
:101D0000CDFFA06814220021183009F036FD200014
:101D100007F087FDA16800260B0050331A88E068A1
:101D2000563108F06AF9200008F0FEF90123350069
:101D30005B42049317AB06960996039307960596A4
:101D40000C9A0B9B012A00D176E0132B00D977E087
:101D5000049B002B2DD1079B002B09D0200008F0FD
:101D600006FAA2681423563217A90BA807F0DBFB6A
:101D7000059B002B0AD05B7CFE2B07D10B9B17AA7F
:101D800099008A58002A01D001330B93A0680B9D5B
:101D9000436A002B00D0C4E0002E1FD0C3699E42CE
:101DA00032D0139612AB183026CB26C006CB06C015
:101DB0002AE00223089A03990CA807F0B4FB039ABF
:101DC0000C99526803000892002907D0012908D114
:101DD000002806D06D4A200007F059FF08256D4203
:101DE00016E00B9B002B3BD0039B186801F016F903
:101DF000002816D0002E0ED0A368139612AA18330E
:101E000023CA23C303CA03C32000FFF70DFF012524
:101E100028002DB0F0BD5E4A0121200007F037FFF9
:101E2000DCE70B9B002B1BD0039B290020001A68CA
:101E300001F0AAFA02280BD10B9B132B00D88AE7DA
:101E40000C9B022B00D086E70121524B524AC2E77D
:101E5000032805D00B9B01330B93012307936FE7F6
:101E6000099B002B06D1039B059819680DAA07F062
:101E700058FC0500039B04330393049B013B04932C
:101E8000002D38D0079AEB68002A09D0002B1BD010
:101E9000200007F045FE200007F096FD3F4ABBE713
:101EA000002B11D00B9AA36806922A00183383CA1C
:101EB00083C303CA03C3AB68002B05D16B7CFE2B25
:101EC00002D12B7C013B049368680595002807D05C
:101ED00012A90B002A00C2CAC2C342CA42C30600EA
:101EE000049A0C9B002A02D1022B00D028E70B9BFE
:101EF00001330B9324E70B9B002B02D001230993A2
:101F0000EEE7A368DB6A002B02D0DB68002BF5D17B
:101F1000234B012100932000224A179B07F0B7FEB4
:101F2000ECE7069BED1A030028331B78002B15D035
:101F3000020029321278FF2A00D11B4A9D4202D3A7
:101F40009B189D420AD9836901212000174A07F096
:101F50009EFE2000FFF768FE162540E70121FFF7EF
:101F6000A5FEA06807F0D2F8069B17AA9B00D2181E
:101F7000A36829005B6A200098470500A06807F065
:101F8000CCF80021A068FFF791FE41E74AD5000890
:101F90005ED50008BFD5000841E700087CD50008E1
:101FA000ABD50008B5D80008FFFF0000E3D5000856
:101FB0009E23F7B5040080689B00C3580E005B07A2
:101FC00005D5002107F0B3F8E06807F0DCFFE3680F
:101FD000DB68002B0FD1002E3FD0A5682F005637AD
:101FE000380007F08AF8002838D028005730390028
:101FF000FF30FEF7AFF96B46A2683100E068563259
:10200000063307F0C3FF00280CD1A0680100573148
:10201000FF315630FEF79EF9A068563007F06DF894
:102020006B46D880200007F072FD9D23A2689B00BC
:10203000D3589B0603D50B49606907F053F820007D
:1020400000F086FD6A46A368D28852331A80A368DE
:10205000200050331A8007F0B7FCF7BDAB235B00BC
:10206000E854C8E768BF0008022210B5836804007E
:102070001A7583689B6C002B17D107F020F89E23FC
:10208000A2689B00D358DB040CD503212000074B2A
:10209000074A07F0FCFD9E23A0689B000549C01875
:1020A00007F01CF8200000F0E3FE10BDFED500088C
:1020B00011D10008FFEFFFFF9E23F0B504008068F8
:1020C0009B00C0180121B5B007F004F8A3681B7D80
:1020D000022B22D100230D93A36860689E6C0368D5
:1020E0001F69002E23D00DAB10221FA9B8470D9BEE
:1020F000002B12D00121A068FFF7D8FD20000D9A17
:102100001FA9B0470021A068FFF7D0FDA3689B6C12
:10211000002BE1D12000FFF7A7FF9E230221A0683A
:102120009B00C018494206F0D9FF35B0F0BD0B2521
:102130000AABED1801220DAB2900B8470D9B002B0F
:10214000EBD00022AA562978A368002AC4DB587D68
:10215000032800D9F8E2FDF7C7FF04009802AE0299
:10216000A7029E2292000D2957D00A292AD0985AF8
:10217000AE4E30409852092900D18AE012D8002989
:1021800000D182E0A068030008294FD19D2292006F
:102190008258920779D5012106F0C9FF200007F087
:1021A000DDFD72E0A0681B296DD07F2900D101E21E
:1021B0000A00203A03005E2A38D8012106F0B7FF52
:1021C0002978F5E098584005000E0DD09A58520530
:1021D000120E0A2A2AD19E229200985A934DC900C3
:1021E00028400843985205E09049985A08405021E9
:1021F00001439952A5682B005033198800293BD11F
:10220000280006F094FFE06807F0BDFE6069FFF764
:1022100045FD2000FFF728FF5EE798584005000EB7
:1022200025D09A585205120E0D2AD4D09D22920024
:102230009858800729D5481E162826D8FDF754FF40
:102240006F02CC01D001C8016902E301250025001D
:1022500025002500E701EB0125000002250005020D
:102260002500250025002500070225001D026F49D5
:10227000985A08406821BBE72000FFF729FDA923F1
:102280009B00E850C5E701234375606907F08FF8AC
:1022900022E79D23A0689B00C3589B07F5D5012129
:1022A00006F045FFA1680B0050331B88FF2BECD0D4
:1022B00008000B00573052331A885631FF3009F0AE
:1022C00040FAA36800251A00523212881FA99B18F1
:1022D0005733FF331D70A26814235732FF320FA803
:1022E00007F021F90F991429CFD8A8228B009B1849
:1022F0000AAA9B18543B1D60A3681A005232128828
:10230000AA4267D09B1855331B78202B54D0093B29
:10231000042B5FD8A94251D100230E930293A82227
:1023200000270E9B3E009B009B180AAA9B18543B5B
:102330001B681800039306F0E0FE089705900497C9
:10234000310002981AAA00F05FFB051E46D1012F4A
:102350006ED1A8220E9B9B009B180AAA9B18543B87
:10236000186806F0CAFEA26805000499029818329F
:1023700000F04AFB0668300006F0BFFE854205D03B
:10238000401B82B27119200007F0C5FCA068030051
:1023900052331B88C31856331B78202B35D0093B8A
:1023A000042B32D99D239B00C358DB0732D4202154
:1023B000200000F025FD68E70029ADD0002010AB1B
:1023C000009301900EAB1FAA07F0CAF902900028F3
:1023D000A5D15AE701299FD90139EFE72D68059A60
:1023E0002800039909F0EDF900280CD12800FDF729
:1023F000B9FF089B834200D203009BB20893002FD1
:1024000000D10496013701369AE70121200007F038
:102410000FFB3AE7002106F099FE2021200000F092
:10242000EFFC0121A06806F091FE2EE707F8FFFF00
:10243000012F00D829E7A8220E9B9B009B180AAA0F
:102440009B18543B1B681800069306F056FEA368C1
:102450000B900233DD87049B07970593A2680599CB
:102460000298183200F0D0FA059B013305930368F7
:102470000393069B002B09D0039B002B06D018006A
:102480000B9A069909F09DF90028E7D1039BA568EE
:10249000002B52D10235EB87079B013B0793002BA2
:1024A000DCD16069FFF7FAFB200000F0E1FCA82214
:1024B0000E9B9B009B180AAA9B18543B186806F0B9
:1024C0001CFE049B0499013315AA0600029803938D
:1024D00000F09AFA0500A06829685730FF22FF3003
:1024E00009F080F92B68994D0493039B03990133FC
:1024F00002981AAA059300F087FA00284FD000230B
:10250000A26800685732FF32D15C8C46C15C6145DD
:1025100005D1002903D08D4901338B42F4D1002E1F
:1025200001D0B34206DB013F9D4200DD1D00ADB28C
:10253000012F34D0059B0393D7E7854B0235180054
:10254000099306F0DAFD089BC6182B8FB6B231004E
:10255000181AFDF719FE83B203980A9306F0CDFD11
:10256000361AE88F0A99431CEB87FDF703FE89B200
:10257000B6B200290CD1039B20000093754A099B39
:10258000063107F084FB3100200000F0CBFA83E72E
:1025900006212000704A039B07F079FBF3E7002D2A
:1025A00000D172E6049BAA1B200092B2991907F091
:1025B000B2FB6AE69D25AD0043599B0700D464E653
:1025C000012106F0B4FDA3685B591B0700D5E5E5C2
:1025D000200007F0A4FB58E6200007F0ADFA54E60F
:1025E000200007F09DFA200007F0D7F9002802D15B
:1025F0006069FFF753FBA068012106F098FD2000F9
:10260000FFF732FD41E6200007F0A1FA3DE6200089
:1026100007F0AAFA39E69B589B0603D54F49606933
:1026200006F060FD9D23A2689B00D3589B0603D54E
:102630004B49606906F056FD200000F019FC24E6C5
:1026400000212000FFF7B4FC1FE60121F9E720007C
:1026500007F05DFA200006F032FD0121A06806F0C7
:1026600066FD9D23A2689B00D3589B0600D40CE610
:102670003C49606906F036FD07E6200000F0DEFA0E
:102680000121A06806F053FDFFE502225B290CD072
:102690009D2292009B589B0705D5622907D163397B
:1026A000200007F0F1F9A36800225A75EDE56629CC
:1026B000F9D16539F4E700225A759D22A36892008A
:1026C0009858800700D407E5313908001B2900D944
:1026D000DBE5FDF7FFFC2200280031001C00DAFDDD
:1026E000DAFDDAFDDAFDDAFDDAFDDAFDDAFDDAFD32
:1026F000DAFDDAFDDAFDBAFFB5FF98FF81FFDAFDFA
:102700001E00DAFD2400DAFDDAFDDAFD2A000322DC
:102710005A75200007F004FAB7E503225A75200025
:1027200007F0F5F9B1E5032159750121A068835837
:10273000DB07DB0F594076E603215975A3689B58E8
:102740009B0700D4A1E543E75E759EE5FFFF00000F
:10275000F8D7000842D6000811D100086DBF000864
:1027600072BF000868BF00089E23F7B504008068A8
:102770009B001500C018002935D08021C90106F042
:10278000A9FCA3680021DD64606803689B68984722
:1027900000282CD1200006F019FD002827D10126A1
:1027A0007642F7179F23A0689B00C01800220721DC
:1027B0000096019708F0B4FFA06806F0AEFC042173
:1027C00020000B4A06F0D3FC20000121094A06F044
:1027D000CEFC606803685B69002B00D09847A06856
:1027E00006F094FCDEE7044906F078FCC9E7F7BD83
:1027F000491C0008B9200008FFBFFFFF10B5040006
:102800000A4906F065FD2000094906F061FD200037
:10281000084906F05DFD2000074906F059FD20003B
:102820000021064A00F062FB002010BD48D60008D7
:1028300086D60008E5D6000839D70008D4D70008A6
:10284000F8B51E002B4B17000A001900040006F013
:102850003FFD002E39D020003A78274906F038FD98
:1028600001256B0703D12000244906F031FDAE425B
:1028700030D920007A5D204906F02AFD0135102D5F
:10288000EFD1002520001E4906F022FD2B00AE42AC
:1028900007D12000194906F01BFD01352B00AE427F
:1028A0001DD9FA5C1300203B5E2B00D92E2220009C
:1028B000144906F00DFD0135102D15D06B07EDD133
:1028C00020000E4906F004FDE8E720000E4906F05E
:1028D000FFFC012520000C4906F0FAFCCEE72000A1
:1028E000064906F0F5FCE6E72000084906F0F0FC92
:1028F000F8BDC046EAD70008F1D70008F9D70008AC
:10290000FBD700081DD80008F7D70008FDD700083E
:10291000F0B5A82704008068BF00C6598BB0150029
:1029200008910993002E56D1AA223100920008F096
:1029300024FFE06807F0DEFB9F23A0689B00C0181F
:1029400008F0DEFEA223A0689B00C018012211003F
:1029500008F04FFCA36902211E609E23A0689B0023
:10296000C01806F0B7FB5022A36820005A87A3685E
:10297000383A1A87216806F0CFFC04239D22A1680B
:102980009D4392008D506068144A036808991E6840
:102990002300B047051E1BD10122A3681A75606A87
:1029A000A16A00220023069207930E23802203933C
:1029B000109B0B4E0293099B0495019300943300E6
:1029C000120104F0F9FBA368D851216A04F030FB2E
:1029D00028000BB0F0BD78256D42F9E7B3910008EF
:1029E0006927000810B50400130006480A002100FA
:1029F00000F076FF23691B79002B02D0200006F03F
:102A0000D6FC10BDC7930008030010B508001400E1
:102A1000002B09D1144B154A9B1A9B08994206D2E8
:102A200088008458200010BD9B68002B01D1002431
:102A3000F8E70F4A934209D30E4A934206D2210087
:102A40001B6898472368002BECD1F0E70A4A9342B1
:102A500002D30A4A934204D31B68142444431C192A
:102A6000F0E70130F9E7C04614BE0008E0BD0008F9
:102A700018BF00082CBF000814BE000818BF0008CB
:102A8000F7B50378040017002D2B04D116235B4201
:102A900000203B60FEBD08F067FF002305000A4EE2
:102AA0000A00835101A9200005F08EFD7359222BE5
:102AB00001D1443BECE7002BE8D1019BA342E5D0D8
:102AC0001B78002BE6D0E1E70C0000009D2310B539
:102AD00082689B00D3589B0603D50249406906F0E3
:102AE0003FFF10BD78BF000810B5024906F038FF5F
:102AF00010BDC04665CE0008412310B5002901DC99
:102B00000DD001339D2284689200A258920606D50A
:102B1000CC170A1940690249624006F021FF10BD36
:102B200019D80008432310B5002901DC0DD001336A
:102B30009D2284689200A258920606D5CC170A19E5
:102B400040690249624006F00BFF10BD19D8000829
:102B5000F7B58568040028005630FDF703FC002314
:102B60003C352F7886B2A268558FED1BB54208DB45
:102B7000002E05DD563310496069D21806F0F0FECC
:102B8000F7BDED18521956321178563301910021D4
:102B90001170A2680949D218606906F0E1FEA368C5
:102BA000019A5B1956331A70A3685B8FDB1BF61A08
:102BB00000272B00D7E7C04611D1000841E70008E5
:102BC0000A0010B5082911D883683E33197891425C
:102BD0000CD01A709D2381689B00CB58082A06D020
:102BE0009B0603D50549406906F0BAFE10BD9B0659
:102BF000FCD50349406906F0B3FEF7E720D800088A
:102C00007DBF000870B50D0009780400FFF7D8FFFC
:102C10006A78072A0FD8A3683F33197891420AD0FF
:102C20001A709D23A1689B00CB589B0603D50249CF
:102C3000606906F095FE70BD29D80008F8B5836874
:102C400004001A0050321288002A4BD01900523169
:102C50000D88002D46D055355D19563319002B00CF
:102C60008B4204D3187820283DD08B423DD29EB2AF
:102C7000ADB2A91B89B25F1C521A01315918380034
:102C800008F068FDA368711B50331A8889B28A184E
:102C90001A80A36820001A005032128809B29B18CB
:102CA000002256331A7006F0C3FE9D23A2689B00D3
:102CB000D3589B0603D50F49606906F051FE3B00CF
:102CC0000D4A0821200006F0E2FF2000FFF7FEFE7B
:102CD0009D23A2689B00D3589B0603D507496069D2
:102CE00006F03EFEF8BD013BBAE718782028BED0BA
:102CF000013BBAE782BF000811D1000886BF000877
:102D0000F0B587B0040003910492002A01D0FFF7C8
:102D1000DDFEA7689D233A009B00FB5852321588C0
:102D20005B0728D556357819FDF71CFB0500002DEB
:102D30001BD1A3681A005032128852331A80A0683F
:102D400006F019FE002808D0049B002B02D0039B3C
:102D5000002B02D06069FFF7C7FE039B2000594299
:102D600009B206F065FE07B0F0BD2249606906F0C1
:102D7000F7FD013DDBE738000095FDF7F3FA3B0076
:102D800050331B8886B29B1902937B8F76191900EA
:102D900030000193FDF7F8F9019905900298FDF7CD
:102DA000F3F9059B83421FD1563508212000124AB2
:102DB0007B1906F06CFFBCE73000598F751CFDF7DE
:102DC0002DFA002902D16069FFF78EFE009B009A60
:102DD0005E1CA36808219B18563320001B78074A05
:102DE00006F055FF00962E00029AA3689642E3DB98
:102DF0009FE7C04610EF000811D100081DD8000859
:102E000073B56B46D9719D21836889005A580400B7
:102E1000D20723D51D001A00523550322888128857
:102E200082421BD06A461B18D279461C56332E802C
:102E30001A70A368585880070FD55B585B0700D5F8
:102E40002A226069094906F08BFD200006F0A5FDE5
:102E5000002802D06069FFF747FE73BD6B46012270
:102E60002000D91D06F01EFFF7E7C0461DD8000858
:102E700010B5094A04008368022106F008FF9D236B
:102E8000A2689B00D3589B0705D52000FFF760FE82
:102E9000200006F0A8FD10BD11D1000810B50249B0
:102EA00006F088FF10BDC04665CE0008F8B50F00DB
:102EB0005168050016001C00002902D01A0006F017
:102EC00084FFB368002B0ED021002800FFF72AFEF4
:102ED00008212800044A3B0006F0D9FE2800B1680A
:102EE000E21D06F072FFF8BD32D80008F0B58DB0D3
:102EF00003910021040016000D00039807AA4F1C3F
:102F0000FFF782FD002813D1002D0FD0002E04D032
:102F100032000821200006F0BAFE00214B1C039865
:102F200007AA0593FFF770FD00280ED10DB0F0BD84
:102F30000068031E02D0FDF715FA83B22A1C9D42D9
:102F400000D21A1C390095B2D7E70768002F11D0BC
:102F50003B78002B0ED04668154B08212000154AFF
:102F600001970095049306F092FE002E04D160694B
:102F7000FFF794FF0599D1E70F4A049B0821200031
:102F800006F085FE0322AB1D9BB2164209D10B4A07
:102F90003168914205D1320039002000FFF786FFE9
:102FA000E8E71A003100200006F00FFFE2E7C04614
:102FB00057D800083DD8000844D80008C40BD28672
:102FC000F7B50F6805000E003C1E03D03800FDF772
:102FD000C9F984B20E4B0821009328003B000D4A2A
:102FE00006F055FE71680334A3B200290BD08A079E
:102FF00009D1094A0868904205D10A0028003168C1
:10300000FFF754FFF7BD1A00280006F0DEFEF9E7CF
:1030100053D8000843D60008C40BD28610B508491F
:103020000400FDF78DF90123002806D02000054992
:10303000FDF786F943425841C3B2180010BDC0469F
:1030400049D800084CD800089D2310B582689B0021
:10305000D35804009B0603D50549406906F01CFFC0
:103060005022A36800205A87A368383A1A8710BDF7
:103070008ABF000810B5836902491A6806F028F96A
:10308000002010BD5AD8000873B50B49050006F0A2
:103090001FF90022094C0A4B9C4201D3002076BD47
:1030A000236A561C0093A36828000649B6B206F0AE
:1030B0000FF92C343200EEE76AD80008B4BD0008DE
:1030C000E0BD000882D8000810B5024906F024F9D6
:1030D000002010BD66CE000873B5040000256B46C5
:1030E000A2689E1D573233000121E068FF3206F0CE
:1030F0004DFF3088A368002808D057332A002000ED
:103100000449FF3306F0E4F80135E8E7AB2252004A
:10311000985476BD93D8000810B5040006F035F930
:1031200003490200200006F0D3F8002010BDC0467D
:1031300056E7000813B5022909D154680A4B0094D8
:103140000A49126806F0DCF81620404216BD9D239D
:1031500082689B00D358064A9B0700D5054A06495A
:1031600006F0B6F80020F1E79DD80008B2D80008B4
:10317000A7CB000865CD0008BBD8000870B59D2519
:103180008368AD005B5904009B0603D5064940697E
:1031900006F082FEA3685B599B0603D5034960696C
:1031A00006F07AFE002070BD91BF000896BF0008AF
:1031B000F0B5040087B001290AD050686C4B00902C
:1031C0006C492000126806F09BF816204042A5E0EA
:1031D0009D2382689B00D3589B0603D566494069AE
:1031E00006F05AFEFA2120004942FFF785FCFA2139
:1031F0002000FFF797FC0B2302AA9B1800258022D2
:10320000A068520057302900FF301D7008F0B5FA51
:103210005A49606906F040FEFA26606906F0C7F870
:10322000B60060680B21036802AF1B69C9199C4690
:10323000012205AB6746B847059B002B1DD1FA203C
:10324000013E8000B6B207F062FF002EE9D19D2357
:10325000A2689B00D3589B0603D54949606906F0D4
:103260001BFE5022A36820005A87A368383A4549BC
:103270001A8706F039F80820A8E702ABDA7AA368C3
:103280001B2A65D0AB214900595C1B29C9D1522AA0
:103290005ED15A1900235732FF3213705822A068AA
:1032A000FF32825C5B2A3BD10100802702250A267F
:1032B0005931FF3103937F000A78944663462A0010
:1032C0000135ADB23B2B2FD1FF2AC0D08027002182
:1032D0000A265832FF3292B282187F0013789C4639
:1032E000002B2BD1AB2252008354A0680A1CFA2970
:1032F00000D9FA226B4642879A89039BA168FA2B70
:1033000000D9FA229D230A87A2689B00D3589B0606
:1033100003D51B49606906F0BFFD002007B0F0BD72
:10332000AB225200835492E7039B01317343303B3D
:1033300063449BB20393BD42BED188E7714301351C
:1033400030396144ADB289B20132BD42C6D17EE7A7
:103350005B1957330135FF33ADB21A70092D00D810
:103360005FE7AB210022A36849005A546FE7C046CB
:103370009DD80008B2D800089CBF000806D90008F4
:10338000A0BF0008CCD80008F0B58DB0060003251A
:1033900004910192002904D0100006F0B1FE00282B
:1033A00054D128000DB0F0BD280057300199FF30EE
:1033B00008F034FA051E4DD0FCF7D4FF82B2601C31
:1033C00029000132281808F0C5F9220028000299C6
:1033D00008F0B7F920232B550025039B01371B88E4
:1033E0000133E418039B1C8005994B1C049807AA21
:1033F0000593FFF709FB041E1DD0002221680198E8
:1034000007F055F80028EFD12368B5681C1E029319
:1034100003D01800FCF7A6FF84B22B0054330393AB
:103420001B881B19FF2BBFDD032130000A4A019BBB
:1034300006F02DFC0125002FB3D0B068019A0100E1
:1034400057305431FF3006F048F9AAE7002702252B
:103450003900CAE70225EEE7C8DD000810B5034AC7
:1034600003480021121A06F095FE10BD4C0F0020F3
:10347000100200200648074A10B5121A064906F045
:103480008DFE064A06480749121A06F087FE10BD4F
:10349000000000201002002014EF000800000020AF
:1034A0000000002014EF000870B505000C1E13D0BA
:1034B0008B684A680F48096805F0E9FB0E486369A4
:1034C0002269E16805F0E3FB0C48E16905F0DFFBE8
:1034D0000B48A16905F0DBFB012D05D1EFF3058158
:1034E0000848103905F0D3FB2800210003F03CF90F
:1034F00070BDC0461ADE00084ADE00087ADE000809
:103500008ADE0008B9DE000830BFFDE7F7B50B4DD5
:103510000B4F2A00EE198C1B01900A49200008F07D
:1035200010F960193A00002108F027F93000019BDA
:10353000083CB83308301C60FEBDC04600000000E7
:10354000080000002CBF0008054B5A699B689A428E
:1035500005D08023034A5B0551680B4353607047D5
:10356000EC0E002000ED00E0F0B52D4B04005F688C
:1035700089B0FD05ED0D62B6BFF36F8F130EFF2B03
:1035800006D1F33B1340082B33D1264805F07FFBCF
:1035900000263400032D32D1234805F078FBA369BF
:1035A000224A934202D3224A934205D3214A9342AC
:1035B00030D3214A93422DD2023B1A881F4B9A42A4
:1035C00028D11F48216805F062FB256820222100D0
:1035D000684608F0B6F8079B002E1DD0DA0502D128
:1035E000184A1343079369462800FFF75DFF09B0A7
:1035F000F0BD01261207CDD50C000026CAE7F8233E
:103600005B0011491F4200D010492A001048103AAF
:1036100005F03DFB0025D9E75B0A5B02E2E7C04607
:1036200000ED00E0FBDE000827DF0008C000000816
:1036300074B90008000000200000002002DF000034
:103640003FDF0008FF010000CDDE0008E2DE0008D9
:103650005CDF00080821024A53698B4353617047BD
:1036600000ED00E0EFF30880EFF3098101B5724649
:10367000FFF77AFF01BDC0460B4880F3088872B699
:103680000A480B490B4A06F085FD084809494018CD
:1036900080F30988EFF314800221084380F3148833
:1036A000BFF36F8F06F090FD50280020501B0020C4
:1036B000AA0000000008000010B50A4B9B68834276
:1036C0000DD1EFF30583002B09D08022064B520564
:1036D00059680A435A605A6A04490A405A6204F017
:1036E000E1F810BDEC0E002000ED00E0FF7FFFFFD1
:1036F00016498A6816481044EFF3098CF0C0434617
:103700004C4655465E466746F8C072B6114F124E9B
:103710004A698A603E60114C14192068104C206080
:10372000104C1419206800232360002800D162B6D1
:10373000074C10191030F8C89846A146AA46B3465F
:10374000BC462438F0C88CF309887047EC0E002082
:103750003000000004ED00E000000008B8000000A8
:10376000400C0020BC00000004207146014202D041
:10377000EFF3098001D1EFF30880816902390978FC
:103780000229FFD001B5724606F00CFD01BDC0460E
:1037900043B2000605D41F221A4001239340014A78
:1037A0001360704700E100E030B5FF2503220B00F5
:1037B000290040B20240D20091409B012B40C943F6
:1037C000934000280ADBC0240A4A80088000801841
:1037D000A40002590A401343035130BD0F22104088
:1037E0000838054A800880008018C26911401943D2
:1037F000C161F2E700E100E000ED00E0FF22044BD0
:103800009343044A9360BFF34F8FBFF36F8F7047AA
:103810000000000800ED00E010B5203A1360029BA4
:1038200001245360039B07499360049BA143D36029
:1038300080235B04D361002391610265BC30036087
:1038400010BDC0461D0C000870B50C4B15009860EB
:10385000B8300B4B02680E001A602C1C86F30988E6
:103860000020044B9847201C002100220023024C1A
:1038700020470000E5A100081D0C0008EC0E002008
:10388000400C00201022014B1A61704700ED00E04F
:10389000F0B5C02400220326FF25A40010002F004D
:1038A0003040C0008740054993089B005B181959B8
:1038B0000132B9431951202AF0D1F0BD00E100E0F6
:1038C00010B5EFF30583054A103BDB00D1184968BA
:1038D00098588847FFF738FE10BDC046CCBB00089B
:1038E000F0B587B007000E001400002110226846D2
:1038F0001D0007F042FF6A4602239370054B2A0021
:103900002100684601930497059604F0EFFE07B086
:10391000F0BDC046FFA1000810B5024B1B689847D8
:10392000002010BD440C0020034B044A1860022301
:1039300091780B4393707047440C00205400002092
:10394000072310B50449054A99430548521A05F062
:1039500062F9002010BDC046232F0020007800200F
:10396000480C002010B500F0B9F8012200230949E5
:1039700002604161084942600A60084983600A6048
:10398000074AC3601360074A03611360064A136065
:1039900010BDC04666CE0008800000207C000020DC
:1039A0005C0C0020580C0020540C0020F7B50600D9
:1039B0001500019100F092F8C3680400002B03D1B8
:1039C00043691A78002A40D10023E36063680199B3
:1039D0009A005258B34207DB324B6361200000F07B
:1039E00063F801204042FEBD511C616117782D2F04
:1039F000F2D1911C61615178A1602D2905D1927895
:103A0000002A0DD101336360E6E7002908D1254B78
:103A100039002800636107F0C6FE0028DED0A760E9
:103A2000A7682800390007F0BEFE62693A2F01D06E
:103A300000280FD11378002B02D163680133636033
:103A4000200000F031F83F20CDE75A1C42611B787E
:103A50008360E5E743783A2B0CD000232361137889
:103A6000002B02D1636801336360200000F01CF872
:103A7000A068B8E7107863680A49002806D10133C6
:103A800063609E4205DD019A9B009A582261616144
:103A9000E8E761612D7820003A2DD2D100F004F8DA
:103AA0002800A0E766CE00080268074B1A60074BA3
:103AB00042681A60064B82681A60064BC2681A6038
:103AC000054B02691A607047800000207C000020CE
:103AD0005C0C0020580C0020540C0020004870475B
:103AE00064000020F8B50600002501277378AB427A
:103AF00000D8F8BD34786419200000F0F3F80028ED
:103B00000ED0200000F004F9074AE1008B58002B8A
:103B100006D052181F2138000C40A0405168984729
:103B20000135EDB2E2E7C046600C0020002205201E
:103B300010B50C4C110020706070FFF735FE0022AC
:103B400006201100A070E070FFF72EFE0C22072166
:103B5000054807F012FE002207201100FFF724FE9F
:103B6000002010BDEC000020F000002010B5040083
:103B7000FF20002C05D02000FCF75CFB1F23181A47
:103B8000C0B2044B1856044BDA6F1443DC67FFF7DE
:103B9000FFFD10BDEC00002004180240024AD36F64
:103BA0008343D3677047C04604180240020000B543
:103BB000080003290AD80E4BFCF782FA02090C13FD
:103BC00019689143196059689143596000BD19689B
:103BD0001143F7E759681143596019689143196017
:103BE000F4E719681143196059680A435A60EDE710
:103BF0000018024070B5FF230D001400002804D007
:103C0000FCF718FB1F231B1ADBB2094AD8008358A4
:103C1000AB4203D111184968A14204D0002B04D152
:103C2000155012185460002070BD10204042FBE770
:103C3000600C0020FF2310B5002804D0FCF7FAFA2E
:103C40001F231B1ADBB20021024ADB009950D21855
:103C5000516010BD600C0020C022C3045203134009
:103C6000032210B50724800803431A401B0C9C4014
:103C70009940044892001218106EA0430843106641
:103C800010BDC04600180240C022C30452031340B6
:103C90000322800803431A40044918329200505806
:103CA00007221B0C9A401040D84070470018024071
:103CB00013B50B4C200007F05CFA00280BD0402312
:103CC00000933F3B0193A3681B68002B06D0694615
:103CD0002000984716BD13204042FBE75820FBE721
:103CE0001CBA0008030000201F2B0DD80130020071
:103CF0009A4013000549CA681A40934204D00869E3
:103D00001840C01A434258417047C046001802404C
:103D10001F220123024093401F2804D80020034A99
:103D2000D3601361704716204042FBE70018024041
:103D3000F0B58DB00C0005001299876802920393CC
:103D4000002C2ED00122637917481340013B034019
:103D500016481B182068984323D1002917D105AEB7
:103D6000300007F046FA124B01960093210028001C
:103D70007F69029A039BB847002806D1012252426C
:103D8000D317300002F0CEFFB0690DB0F0BD139B29
:103D900000910193210028007E69029A039BB0479D
:103DA000F3E716204042F0E7000800E0FFFFFF1FA6
:103DB000C3A40008F8B58568002913D0002B11D0E2
:103DC00001261C7A3440094E013C3440084EA419A7
:103DD0001E68E743A64305D15C683C4202D1AC694A
:103DE000A047F8BD16204042FBE7C046000800E0AF
:103DF000FFFFFF1F70B51300034C826895690A002E
:103E00002100A84770BDC046CFA40008F0B591B00E
:103E1000019102920093836804938368029A03934A
:103E2000764B9A4200D9E7E0039B9C8FDB8F0134ED
:103E3000E418039B3A33DB88E418002A00D1DBE066
:103E4000FA23009A9B009A4200D3D5E083680FA919
:103E50009B6A9847002800D0CCE0009B002B0CD137
:103E6000674B029A9A4244D8664B93429B414A223E
:103E70009343654A9446634400930F9B029918004C
:103E800061430D93FCF73AF9049B1B8F984200D2D3
:103E900018000300029A059053430C935B4B0A935E
:103EA000039B3A330693069B059A1B899A4222DDAF
:103EB0000A98019B019ADB8892885B08191C93423F
:103EC00000D9111C019B8AB21980049B1B8E9A4257
:103ED00006D9039B598F0B1C914200D9131C9BB22E
:103EE000019A1380494B984201D18620404211B07B
:103EF000F0BD474BC0E70C990D98FCF73BF90990D2
:103F0000002931D1069BFA219B8800980793069BD4
:103F100089005B880B930B9A079B9C18049BA4B2A7
:103F20009B8E0893049B5D8E6B469E8C099B584329
:103F3000FCF7E4F8049B301ADA8E80B21700904246
:103F400006D9069BDB881F1C834200D9071CBFB221
:103F5000731EDB1B9BB29C420FD2069B361B013E9D
:103F6000DB88B7B2BB4212D2029A059B944601335A
:103F700005930C9B63440C9395E708994C19A4B2E4
:103F80009C4217D9361B013EB7B2BA42ECD863083F
:103F90009D4206D26A46958D0B9A9A4200D91D1C05
:103FA000ADB2661B079BB6B2B34205D2E51A1E003E
:103FB000ADB204E01C00EAE7089BB342F6D8FA234E
:103FC000601C9B0058430999FCF798F8009A03007D
:103FD000101A9A4200D2981A0A9B8342C4D9019BB4
:103FE000059A5D809E80DF801A81002800D160E7FD
:103FF0000A90B9E7052079E7162077E740420F00DD
:1040000000350C0020A107006B030000FFFFFF7FBD
:10401000EE02000030B585B004000D000A22002138
:1040200001A807F0AAFB63685A6863689B68954219
:104030001CD39D421AD8104B9D4215D80F4B4A22D3
:10404000AB429B4193430E4A9B182A00200001A9D2
:10405000FFF7DCFE002805DB32280ADC200001A97E
:1040600006F03CFA05B030BD064BEEE78620404234
:10407000F8E72220FBE7C04600350C0020A107002E
:104080006B030000EE0200000023062802D8054B57
:10409000C000C3580B600023CB604B60024B8B60A9
:1040A0007047C0468CC5000820BF000810B50C0042
:1040B000054905F0EDFB002800D0006800232060D2
:1040C000E3606360A36010BDF540000810B50C000C
:1040D000064905F0DDFB002800D000680023E360FE
:1040E0006360034B2060A36010BDC046F54000082C
:1040F00020BF000810B5074A81680023914205D20D
:10410000054A914202D307F034F803000120184019
:1041100010BDC04610BD0008CCBC0008F7B50600B5
:104120005068140005F0C7FB0500FFF7E3FF002807
:1041300007D130001149626805F0E2F813204042CF
:10414000FEBDA0680A2201A904F0C4F9019B070082
:104150001C78002C05D03000094905F0D1F8162054
:10416000EDE702000749300005F0B2F8AB6828001F
:104170003900DB6998472000E2E7C04699DF000874
:10418000AEDF0008C9DF0008F8B505000E00002406
:1041900001273300E3403B420DD03A000023A24008
:1041A0000A49486882420AD1084ADB000849D258C5
:1041B000280005F08DF80134202CEAD1F8BD013338
:1041C0000831072BEDD10349F2E7C0468CC5000842
:1041D00039D80008E5DF000870B505005068160002
:1041E00005F069FB0400FFF785FF002808D12800CF
:1041F00013240C49726805F083F86442200070BDF6
:1042000028000949726805F063F8A36820009B68DC
:104210009847041EF2D002000449280005F070F807
:10422000ECE7C04699DF0008EDDF0008FADF000880
:1042300070B505005068160005F03DFB0400FFF75F
:1042400059FF002808D1280013240C49726805F092
:1042500057F86442200070BD28000949726805F0D3
:1042600037F8A36820005B689847041EF2D002006C
:104270000449280005F044F8ECE7C04699DF00083F
:1042800022E000082FE00008F0B589B001905068E6
:104290001600049105F00FFB00240290FFF72AFF9F
:1042A0000225A0421DD172682449019805F028F822
:1042B00013267642300009B0F0BDAB00F3580393EB
:1042C000002300931E4B0593009B0398DF00059B82
:1042D000FF183968FCF734F8002819D17B681C43B3
:1042E0000135049BAB42E8D822001649019804F03E
:1042F000EFFF029B21009B680298DB689847061E2F
:10430000D8D0030022001049019804F0F9FFD1E74A
:10431000009B01330093072BD6D11022039807A9E5
:1043200004F052F9079B1B78002B01D10443D7E717
:104330000649019804F0E4FF1626BAE799DF000861
:104340008CC500086EE0000883E0000858E0000813
:1043500037B50E4D0E4C2B68002B04D128600D494B
:10436000200003F077FE01225242D3172000009272
:1043700001930949023203F0FDFE041E04D002003D
:104380000649286804F0BCFF20003EBDE40C002074
:1043900080050020D949000884000020A7E000081B
:1043A000F0B504008FB050681700069105F083FA4D
:1043B0000790FFF79FFE002836D1200055497A6804
:1043C00004F09EFF13256D422BE030000999FBF7A6
:1043D000B7FF00281CD101234F4A0135059206AAD8
:1043E0001377069BAB420BD9AB00FE5833782D2BCD
:1043F00006D130000899FBF7A3FF0028E5D101356D
:10440000069B9D4219D32000444904F079FF04E043
:1044100032002000424904F073FF200004F0A4FFA2
:10442000012528000FB0F0BD3E4A002305923E4A08
:10443000022508923D4A0992D1E76B1CAD0010227B
:104440000AA97859089304F0BFF80A9A0300127871
:104450003749002A1FD1059A0BAE82420AD2317A1F
:104460000322C90700D505323249200004F048FF75
:104470001625A8E7089B069A0B90934219D27D193E
:10448000102268680AA904F09FF80A9A03001278BB
:10449000002A04D02849200004F032FFE8E7059AFA
:1044A000824207D2317A0322C90700D50532234957
:1044B000DBE7059B20007360FFF74AFF051EB0D1C4
:1044C000337ADB071BD40B2303201D4A0C9E1D49A6
:1044D00003960B9E029001960090200004F0F8FED7
:1044E0000022194907980BABFFF764FC061E0ADA95
:1044F00002001649200004F003FF350091E71D2358
:104500000820134AE2E702001249200004F0E0FE0E
:1045100087E7C04699DF0008FFFFFF1FFDE00008A6
:10452000E4E00008FF070000BBD30008BED300088A
:1045300017E100082FE100084BE1000868E10008DE
:10454000DBE0000889E10008B1490008CBE1000880
:10455000D2E00008F5CA000837B50E4D0E4C2B68A6
:10456000002B04D128600D49200003F073FD0122C7
:104570005242D3172000009201930949023203F0FE
:10458000F9FD041E04D002000649286804F0B8FEB4
:1045900020003EBDE80C0020C80500206949000845
:1045A00098000020EAE10008F0B505008DB05068E1
:1045B0001600079105F07FF907000A22002109A8DB
:1045C00007F0DBF83800FFF795FD002809D1280037
:1045D0004649726804F094FE1324644220000DB032
:1045E000F0BD08A90A22B06803F0EEFF089B40491D
:1045F0001B780590002B0ED1079B032B68D90A224C
:10460000F06808A903F0E0FF83B20693089B1B78CB
:10461000002B05D03749280004F072FE1624DCE791
:104620003800069B059A09A9FFF7F0FB041E13DA70
:104630000A210698FBF762FD0A2187B206980194C9
:10464000FBF798FD2C4E89B200913B003100280009
:10465000059A04F055FEC1E7079B042B0BD008A96F
:104660000A22306903F0B0FF04AB9882089B23490B
:104670001B78002BCFD106980A21FBF73FFD09AE2E
:1046800083B20793338820000A210393FBF7C6FD0A
:10469000200002910A21FBF777FD0A21019006987C
:1046A000FBF768FD89B200912800079B059A144921
:1046B00004F00EFE3100380005F010FF041E01D199
:1046C00000248BE70F492200280004F019FE85E73B
:1046D00028000D49059A04F0FBFD38000599FFF705
:1046E00099FC041EECD00949EDE7C04699DF0008AB
:1046F00015E200082EE200084CE200089AE20008E9
:10470000AFE20008F6E2000815E3000830E3000815
:10471000F0B5070093B050680991089205F0CBF806
:104720000EAC0B9010220021200007F026F80B9809
:10473000FFF7E0FC002808D1089B380075495A684B
:1047400004F0DEFD13256D4256E00023032501260B
:10475000A380714B0A93099A6B1E934210D2089A58
:10476000A900043A545822782D2A06D120006B491A
:10477000FBF7E6FD002808D12B00099A93423ED3AF
:104780003800674904F0BCFD32E020006549FBF7C2
:10479000D7FD002808D10EAB5B79634A33430A92F8
:1047A0000EAA53710135D6E720006049FBF7C8FD1A
:1047B000002804D102220EAB5B791343F0E72000FE
:1047C0005B49FBF7BDFD002803D10EAB04225B79EA
:1047D000F3E720005749FBF7B3FD002803D10EABE8
:1047E00008225B79E9E722003800534904F088FD8C
:1047F000380004F0B9FD0125280013B0F0BD089879
:104800005E1C9B00102218580DA903F0DDFE0D9AC6
:1048100003001278002A05D03800484904F070FDE2
:10482000162590E70A9A0EAD824209D269790322D1
:10483000C90700D505323800414904F061FDEFE7B2
:10484000099B40490E909A1B082A54D8B3182A7124
:104850000993099B9E423DD13800FFF77DFE051E5E
:10486000CAD1394B1C68621C1A602D2204AB9B18FC
:104870001A78D3074AD40B260321344B2C2504A8DD
:1048800040190078D5080690012005400595950847
:10489000C2408C46024003920E9A05400292624644
:1048A000380001922A4922000495009604F010FD78
:1048B000284B002200930B98002301940EA9FFF7C8
:1048C00037FA051E98D0030022003800224904F070
:1048D00017FD91E7089B0136043BB40010221859DC
:1048E0000DA903F071FE0D9B02001B78002B06D072
:1048F000089B1A491A59380004F002FD90E7013567
:10490000FF2801D91649F6E7E871A2E71D2608211C
:10491000144BB3E799DF0008FF070000BBD3000882
:10492000FDE00008BED30008FFFFFF1F50E30008B2
:1049300053E3000856E3000859E3000817E10008B4
:104940002FE1000870E30008E00C0020DBE0000825
:10495000C6E30008BD4A000821E4000895E300080A
:10496000AEE30008D2E0000807B500220023694644
:104970000B4802F079F80B4A002803D01068FFF7C3
:10498000EBFD07BD019B1068009A002B03D106497F
:1049900004F09EFCE9E7054904F0B2FCE5E7C046F7
:1049A00080010020E80C00204BE400086CE40008C3
:1049B00070B586B001AC230064C964C30A681A608C
:1049C0002061002200232100024806F0FAFB06B015
:1049D00070BDC04650010020F0B58BB005AD00237E
:1049E000002229002A4802F03FF82A4B041E04D076
:1049F0001868FFF7ADFC0BB0F0BD2A791F68264997
:104A0000131C0F2A00D90F23DBB2CB5C38000393B1
:104A10002B6922491A6804F05BFC01216A79059B25
:104A20000A4224D000220820DB00DB081C4E1D496E
:104A3000019300903300380004F04AFC6979320099
:104A40000223490701D4184A013B039817490090F3
:104A5000380004F03DFC6B799B0714D538001449ED
:104A600004F036FC3800134904F032FCB6E75B056D
:104A7000032005225B0DD9E72B1938001A7A0E495D
:104A800004F026FC0134039BA342F5DCEAE7C046B0
:104A900050010020E40C0020E2EC000893E4000840
:104AA00066CE000898E40008F9D70008A2E40008E0
:104AB000ADE4000865CE0008F1D7000807B5009204
:104AC0000191002200236946014806F07AFB07BDE8
:104AD00080010020F0B5050089B05068160004F090
:104AE000EAFE070005AC0A220021200006F045FE80
:104AF0003800FFF7FFFA002809D128002E49726814
:104B000004F0FEFB13246442200009B0F0BD0A2229
:104B1000B06804A903F058FD049B20801B78002B8B
:104B200005D02649280004F0EBFB1624EBE704A986
:104B30000A22F06803F048FD049B60801B7820493E
:104B4000002BEFD104A90A22306903F03DFD049B3C
:104B5000A0801B781B49002BE4D104A90A227069AC
:104B600003F032FD049BE0801B781749002BD9D15C
:104B700004A90A22B06903F027FD049B20811B7859
:104B80001249002BCED180B2638822880290E0883F
:104B90000F490190A0880090280004F099FB2100A3
:104BA000380005F09BFC041EAED002000949280025
:104BB00004F0A6FBA8E7C04699DF0008C9E4000896
:104BC000DEE40008F8E4000814E5000830E5000819
:104BD0004BE50008F6E20008F0B5040091B050681B
:104BE000160004F068FE0500FFF784FA002809D1DA
:104BF0007268200013267A4904F082FB7642300066
:104C000011B0F0BDAB680EA928009B6A98477549A2
:104C1000061E32D16B689B680B93AB68DB6A002B76
:104C200022D158235B420993AB68DB6A002B29D160
:104C300058235B420A93AB680FA928001B6898476A
:104C40006949071E0AD12321AB6804A809181B6A09
:104C500028000DAA9847071E1FD064493A0020007B
:104C600004F04EFB3E00CAE7010028009847031EEF
:104C70000990D9DA5833D4D05D493200200004F0CD
:104C80003FFBBCE7012128009847031E0A90D2DAB7
:104C90005833CDD000225749F0E720000E9A5649EC
:104CA00004F016FB20000B9A544904F011FB20007D
:104CB000099A534904F00CFB0A9A2000514904F068
:104CC00007FB2000504904F003FB20000F99FFF779
:104CD0005BFA4E4F2000390004F0FAFA20004C49EC
:104CE00004F0F6FA2B6920001968FFF74DFA390035
:104CF000200004F0EDFA232204AB9B181B78454AF0
:104D0000042B02D8444A9B009A5820000DAF434917
:104D100004F0DEFA20007A78414904F0D9FA200044
:104D20003A78404904F0D4FAA868AB68028E1F00B4
:104D30005B8F3A3709933B893B490793038F06936F
:104D4000FB880593C38E0493BB880393838E0293E1
:104D50007F88099B0197408E0090200004F0B8FAEC
:104D60006B68324A1B68002B00D01A68200030495B
:104D700004F0AEFA20002F4904F0AAFAEB682000F4
:104D80002D49DA6904F0A4FAEB6820002B491A6A6D
:104D900004F09EFAEB68200029495A6A04F098FA58
:104DA000EB68200027499A6A04F092FAEB68200029
:104DB0002549DA6A04F08CFAEB68200023491A6B63
:104DC00004F086FAEB68200021495A6B04F080FA5F
:104DD000EB6820001F499A6B04F07AFA0FE7C0468F
:104DE00099DF0008ABE5000846E600087AE600080F
:104DF000D2E500080CE60008A3E60008BBE60008C0
:104E0000D4E60008E9E60008FEE6000865CE0008E2
:104E100017E70008BEC9000830C4000830E70008E2
:104E200045E700085AE700086FE700089EE500081C
:104E3000D5E70008EAE70008F7E700080CE80008F3
:104E400021E8000836E800084BE8000860E80008A0
:104E500075E800088AE80008F0B58DB00393436850
:104E60000400029101920021102208A89F6906F017
:104E700084FC2000019905AA05F07FFB00286ED173
:104E80007F23059E1E426AD03F23360A1E40093307
:104E90007343029A2000D3189BB200930099082311
:104EA00006AA05F050FB002859D104AB9B7B1B07D9
:104EB0001B0FDAB2944608AA137104ABDB7A990689
:104EC00003D5022150790143517106AA92799106C6
:104ED00004D5042108A8457929434171D20604D597
:104EE000082208A9487902434A715AB2002A04DA12
:104EF000102208A9487902434A7106A9CD7908AA67
:104F00006D066D0E5B0617D5069BDB00DB0808936C
:104F1000012351790B43537162461A4B9B5C082B5A
:104F200027D808AA527992070BD508A94B79ED002A
:104F3000DB0716D47B6815E04B88DB045B0D089318
:104F4000EAE7002BF1D003220099033308319343A1
:104F5000200089B20AAA05F0F6FA0028E5D00DB0C3
:104F6000F0BDBB685D192B686A68002B01D020007A
:104F7000984732002000039905F037FB002800D144
:104F800077E7ECE7F2EC0008F7B5050006690122C7
:104F90005242D3171036300005F0E7FA18212800E6
:104FA00001AA05F0EAFA041E28D11023019A18215B
:104FB0009A432800019205F018FB041E1ED101F04F
:104FC0000DFB1821070001AA280005F0D6FA041EDF
:104FD00014D10822019B134210D001F0FFFA0E4BAE
:104FE000C01B98420FD91022019B18211A43280098
:104FF000019205F0FAFA041E00D10B3C300005F0D6
:10500000B8FA2000FEBD1821280001AA05F0B5FA63
:105010000028DED00400F1E7003E490070B50469C5
:10502000050023790E00002B25D1103401225242B5
:10503000D317200005F099FA7F21F3883288013BCD
:105040000B40FF21013A52061A43B3880902013B83
:105050001B020B401A4333890849013B1B040B40D8
:1050600028001C211A4305F0C0FA0500200005F0B5
:1050700080FA280070BD10256D42FAE70000FF019C
:10508000F0B5040003698BB002935021200006AAFA
:1050900005F073FA002805D10699574B0A001A400B
:1050A000194201D10BB0F0BD5021200005F09DFA4E
:1050B0000028F7D1E022069B9204134237D02669DC
:1050C0002000B36807AA0093F368039363689F699D
:1050D00004ABDD1D290005F0E2FB002827D12B7869
:1050E0000193009B002B05D02000039B079A019998
:1050F000009DA847019B032B19D10122D421200038
:10510000524205F072FA051E11D13B7B9D4235D308
:105110001821200008AA05F030FA002807D1012341
:10512000089A18219A432000089205F05EFA80221E
:10513000069B520113420FD06768BB690093236935
:105140000193F421200007AA05F017FA002803D1E3
:105150003F23079D1D4226D1069B1B0403D50298C1
:10516000243001F0A5FDC023069A5B051A4200D148
:105170008BE7200008A905F006FA86E73A68E900FF
:1051800052181368002B0CD0002010603A682000E1
:10519000521872215268494298473000243001F079
:1051A00087FD0135B1E71F232D0A398F1D40EB0024
:1051B000C91808AE08233200200089B205F0C3F9EF
:1051C0000028C9D12A00F8212000F67905F00DFA4F
:1051D000051EC1D1009BF6001B689B195A681E680A
:1051E000039218600198243001F062FD290020002C
:1051F000039AB047A5E7C0460090823BF0B58BB05C
:10520000049343680192039300910C799F6906000F
:105210000569614A231C0F2C00D90F23DBB2D35C34
:105220000021082208A8029306F0A7FA4020009B5C
:105230005A799307DB0F910101405B010B4306A9EB
:10524000CB720F21802321405B420B4306A98B7355
:10525000032A00D995E0029B082B00D994E0082C82
:1052600000D991E02B79002B00D18FE0300007A905
:1052700005F089F9041E54D1079B1B0600D587E071
:105280002B0024330593019A049B059801F04AFDF5
:10529000041E00D07EE03C3501225242D317280084
:1052A000049505F062F93B7BA3423DDC01235B42A0
:1052B0000193019B009908AAD3714979009B1B684F
:1052C000C90739D5089ADB00520FDB085207134390
:1052D00008934825019B30005D43039BADB2598F75
:1052E00008AA6918082389B205F033F9041E3DD1D4
:1052F000009B5B799B0727D5019B109ADD003B68DB
:10530000D0215A513B68119A5B195A600122019BC6
:1053100030009A4005F069F9041E2ED1049805F07A
:1053200028F920000BB0F0BD3A68E1008A580194DA
:10533000002ABED00134B7E7518818485B05DB0C62
:1053400001400B435380C4E7029B002BD4D00322BF
:1053500003990333498F93430831009A6918300049
:10536000083289B205F0F5F8041EC5D0049805F09E
:1053700000F9059801F09CFCD3E700223B685A51E4
:10538000F4E786246442CCE71624FBE77324F9E7AC
:105390007224F7E70B24F5E7F2EC000803E0FFFFC7
:1053A000F0B587B0039242680291976901921A683A
:1053B000244912040A40802100245B6806695B05C9
:1053C00009065B0D0B431A431036059205000122B6
:1053D0005242D3173000009605F0C7F87B7BA342FA
:1053E00005DC009805F0C5F81C20404227E07A68EB
:1053F000E600B258002A01D00134F0E7012338203A
:1054000004AAD179234001338143DB000B43D371DC
:10541000019AA300D18D2800C91889B2042305AAD6
:1054200005F097F800280AD1009805F0A2F82000AE
:105430007B68029A9A517B68039A9B195A6007B05D
:10544000F0BDC0460000FF07F0B5456885B00669AD
:1054500004000A22002101A8AF6906F08EF930008D
:10546000103005F0BFFE30003C3005F0BBFE397B4C
:1054700030000A00243005F0BCFE2868002806D160
:105480002000FFF781FD002809D0052004E005F089
:1054900070FE0028F4D11320404205B0F0BDFA227E
:1054A00000232000920005F0A6F80028EDD120008E
:1054B00005F0DEFA6A461821200005F05EF80028A3
:1054C000EBD1009A2F4B18211A402000009205F0D2
:1054D0008CF80028E1D16A461021200005F04DF833
:1054E0000028DAD11021009A20008A43009205F0AA
:1054F0007CF80028D1D16A468021200005F03DF8D3
:105500000028CAD12B22009B80211A432000009240
:1055100005F06BF80028C0D1EA682B8A200001A9A9
:10552000FEF774FC1630B0D0200001A904F0D6FFBD
:105530000028B0D1144A54212000009205F055F8FB
:105540000028AAD1992258212000009205F04DF898
:105550000028A2D103225C212000009205F045F82A
:1055600000289AD10122E02152422000009205F049
:105570003CF8002800D090E70100EA6B200004F01E
:10558000EEFF8AE75BFCFFFF9990821BD02843D097
:105590002BD8A82842D011D884281CD00300883BDF
:1055A0009BB21C2B20D801229A4026490A4212D1D4
:1055B000082B35D01C2B17D1902015E0B82831D0FE
:1055C0000BD8B42830D00FD803000422AC3B93434F
:1055D0009BB2002B08D11C4806E0CC2826D003D86B
:1055E000BC28F8D0C828F6D07047E02820D007D8CB
:1055F000D8281FD0DC281FD0D428F5D1D020F3E73D
:10560000F4281BD004D8E4281AD0F028E3D0EBE724
:10561000F828E9D1E820E7E7CC20E5E79420E3E7A4
:105620008420E1E79C20DFE79820DDE7C820DBE766
:10563000DC20D9E7D420D7E7D820D5E7E420D3E78A
:10564000E020D1E701001101FFFF000070B54368C1
:1056500008001E6C0D001400FFF798FF1D4B9842C8
:1056600034D03368C0180368582D1FD019D80422CD
:105670009543502D17D1FF22F82099019205114032
:10568000C002DA00024011430122FE201A401143F9
:1056900040019A00024011431C225B0013400B435F
:1056A00001E0802D0FD02360002070BD02211A0080
:1056B0000A400B4200D0D022DB0701D42260F3E77E
:1056C0000D231343EFE73F221340ECE786204042CF
:1056D000EBE7C046FFFF000070B5436808001D6C93
:1056E0000E001400FFF752FF1C4B984232D0582E88
:1056F00021D019D804239E43502E17D1FF22F82120
:10570000A309120413400902E2080A4013430122CC
:10571000FE2122401343C900A2080A4013430E226F
:10572000640814401C4301E0802E0FD02B68C01881
:105730000460002070BDD02323405A1E93410D22E7
:1057400022405C000123002AECD1EFE73F232340F5
:10575000034CE7E786204042ECE7C046FFFF00002D
:1057600000001C080822F0B50500C46887B00434A6
:105770002000394B0092042103F097FB2100286898
:10578000FBF7A4FB6B6800211B6C05AA5869029308
:1057900005F080FB041E27DB059B002219791868A1
:1057A00000F09CFA041E1FDB6B681E6C2B4F380048
:1057B00005F0DFFC00284DD0BB68F1680393B368A7
:1057C000012B07D8039BF1681B68002B0FD15824CD
:1057D000644209E0039B08319B69002BF7D000224B
:1057E00038009847041EEDDA200007B0F0BD3800FD
:1057F0009847041EF8DB337E002B06D0280005F006
:1058000037F9337E164A5B081360280005F030F93B
:105810008021280005AA04F0B0FE041EE4D1059BF7
:10582000104A80211A432800059204F0DEFE041E6F
:10583000DAD18022C0212800520404F0D6FE041ED2
:10584000D2D12800FFF700FE041ECDD1029B1B69B8
:105850009847C9E71324BBE76CED00081CBA0008A1
:105860000065004000001C0873B543680C001E6C06
:10587000124D280005F07DFC00281CD0AB68B268F2
:10588000F168DB68012A00D90831002B02D105201C
:1058900040420FE0280001AA98470028F7DB084B98
:1058A00001981A68002A03D019684900FAF726FC03
:1058B0002060002076BD1320EAE7C0461CBA00082D
:1058C00000650040F7B5446800202368834221D07A
:1058D000180005F04EFC002821D020682179E388CB
:1058E000826894460269DC0715D4D02464032343FC
:1058F00001273D000B4C16681C408D40019434007C
:10590000AC433B4201D034002C43634614601B6817
:10591000019A9847FEBDB02464036340E8E716206F
:105920004042F7E7FFFFEFFF0B8813B50C481B055C
:105930001A0D1B181B0D0C2B0ED80A4C4868131996
:105940001A68024300201A600B881B051B0D1B19E7
:105950001B680193019B16BD86204042FBE7C046B1
:105960000000C0FC001002400B8809481B051A0DFE
:105970001B181B0D0C2B07D80020064B4968D318A9
:105980001A688A431A60704786204042FBE7C04687
:105990000000C0FC0010024010B50888140000058B
:1059A000000D082815D8002801D1863810BD01380F
:1059B000072818D8FAF784FB1C1F041A171A1C1C96
:1059C00000208023206009685B01994216D20020E4
:1059D000ECE70D4BC0180005000D0C2803D80B4B4D
:1059E000C340DB0704D486204042DFE70848E8E7ED
:1059F000084B1868E5E780200002E2E7090B013157
:105A0000FAF77CFB2060E2E7CC0F000011110000E8
:105A1000006CDC02DC00002070B508880C0000057A
:105A2000000D05F0E8F800281ADB6368FF2B16D09C
:105A30003F2198B25A011B0C0B40D20E9A40094EDE
:105A40008019056895430560636898B2DA0E1B0CEF
:105A50000B409A4013008019046823430360002020
:105A600070BDC046001002400B880A4A1B05180D85
:105A70009B1810B51B0D0C2B08D8074BC0180368DA
:105A80004868984343425841013010BD05F0B3F8CF
:105A9000F8E7C0460000C0FC00100240F8B52F4DEA
:105AA00000F06CF8280005F0B3F800F0A9FD1F2104
:105AB0002B4C2C4AA3682E001B051B0F9B009B58E8
:105AC0000B40D840136807000B401E41B04202D281
:105AD000300000F0C1FD2368234A13402360802377
