:020000040800F2
:10000000003000207D1C0008CD1C0008CD1C00081D
:1000100000000000000000000000000000000000E0
:10002000000000000000000000000000CD1C0008DF
:100030000000000000000000CD1C0008DB170008D5
:10004000CD1C000800000000CD1C0008CD1C0008DD
:10005000CD1C00089D180008AD180008BD18000848
:1000600000000000CD1C0008CD1C0008CD1C0008BD
:10007000CD1C0008B1160008C916000800000000D9
:10008000D11600080000000000000000E91600087A
:10009000000000000117000819170008CD1C000817
:1000A00000000000CD1C000800000000951B0008A7
:1000B000AD1B000800000000000000000000000070
:1000C00002B4714649084900095C49008E4402BCEB
:1000D0007047C046002243088B4274D303098B4209
:1000E0005FD3030A8B4244D3030B8B4228D3030C08
:1000F0008B420DD3FF22090212BA030C8B4202D3AA
:100100001212090265D0030B8B4219D300E0090AD1
:10011000C30B8B4201D3CB03C01A5241830B8B42DA
:1001200001D38B03C01A5241430B8B4201D34B03C3
:10013000C01A5241030B8B4201D30B03C01A524128
:10014000C30A8B4201D3CB02C01A5241830A8B42AD
:1001500001D38B02C01A5241430A8B4201D34B0296
:10016000C01A5241030A8B4201D30B02C01A5241FA
:10017000CDD2C3098B4201D3CB01C01A52418309AE
:100180008B4201D38B01C01A524143098B4201D3E8
:100190004B01C01A524103098B4201D30B01C01A13
:1001A0005241C3088B4201D3CB00C01A524183088D
:1001B0008B4201D38B00C01A524143088B4201D3BA
:1001C0004B00C01A5241411A00D20146524110461A
:1001D0007047FFE701B5002000F006F802BDC046F9
:1001E0000029F7D076E770477047C04610B5064C37
:1001F0002378002B07D1054B002B02D0044800E0E8
:1002000000BF0123237010BD80000020000000000B
:100210003C230008044B10B5002B03D003490448CD
:1002200000E000BF10BDC0460000000084000020B8
:100230003C23000870477047082303600023436095
:100240008360C3600382704710B50248FFF7F4FF74
:1002500010BDC0469C000020002110B50400B02253
:1002600002C001F095FF200010BD000010B502484B
:10027000FFF7F2FF10BDC046B0000020002303606E
:1002800043608360C36003614361704710B504003D
:10029000C068002801D001F097FA2069002801D039
:1002A00001F092FA6069002801D001F08DFA200077
:1002B00010BD000010B50448FFF7E0FF0022034B1B
:1002C0001A705A7010BDC0466801002064010020F9
:1002D00010B50248FFF7DAFF10BDC04668010020E4
:1002E000F8B51C00494B1600836701230D00C36756
:1002F00068220021070001F04BFFF3B22E2B2CD80F
:10030000E02243499B00D20032405E581643EBB2D4
:10031000BE662E2B37D8E0223D499B00D2002A40F2
:100320005D581543E3B2FD662E2B42D8E0223849D2
:100330009B00D20022405C581443069B3C67DBB212
:100340002E2B4CD8E022324906989B00D2005B58F5
:100350000240134338007B67F8BDC0223240C02AF8
:100360000ED1D22B0CD83F232A4933409B005B5837
:10037000E021274A9B009B58C9000E401E43C6E758
:1003800001267642C3E7C0222A40C02A0ED1D22BD2
:100390000CD83F231F492B409B005B58E0211C4A8F
:1003A0009B009B58C9000D401D43BBE701256D42D2
:1003B000B8E7C0222240C02A0ED1D22B0CD83F234E
:1003C000144923409B005B58E021114A9B009B5835
:1003D000C9000C401C43B0E701246442ADE7C022D1
:1003E00006990A40C02A0ED1D22B0CD83F2306987A
:1003F000084903409B005958E023054A8900DB0067
:100400008A580340A5E701235B42A3E700093D00AA
:10041000A82400085C2400082F2307B50C220093B1
:100420000B210248223BFFF75BFF07BD8001002044
:100430007047000070B5104B05001978002901D1F4
:10044000012070BDFA208000FFF744FE0B4C010034
:100450002068FFF73FFE00F081F8041EF0D1032D65
:10046000EED8020001202900404200F031F8044B90
:1004700020001D60E5E7C046000000202C000020A1
:10048000040000208023084A5B00116810B50B436C
:1004900003201360FFF7CEFF041E03D1FFF7C8FF50
:1004A000200010BD0124FBE700200240034A044B5A
:1004B00011681B785B1813607047C046000200206B
:1004C00000000020014B18687047C0460002002061
:1004D00010B5FF2403220B0021000240D2009140FE
:1004E0009B012340C943934000280ADBC0240B4AE8
:1004F000800880008018A40002590A401343035169
:1005000010BD0F2210400838054A8008800080186E
:10051000C26911401943C161F2E7C04600E100E041
:1005200000ED00E0002805DB1F2318401E3B834040
:10053000014A13607047C04600E100E0002809DB73
:100540001F2318401E3B8340034AD367BFF34F8FDE
:10055000BFF36F8F7047C04604E100E08022431E66
:100560005204012093420DD2C021074A074853602C
:10057000036A09061B021B0A0B43036200200723C0
:10058000906013607047C04610E000E000ED00E0AE
:10059000002807DB1F23C02218401E3B834002496E
:1005A00052008B507047C04600E100E0704710B524
:1005B000FFF7FCFF10BD704710B5041E01D10120EC
:1005C00010BD437FDAB2002B02D10277FFF7F3FFB1
:1005D000022363772379002B1CD118212368124A48
:1005E0005A619A688A439A6062792368002A19D10D
:1005F000013A60211A619A6800208A4361690A43BE
:1006000080219A609A688A43A1690A439A6001230B
:100610006377D5E72000E268A16800F007F80028BA
:10062000E2D0CCE72269E4E7B71DC10430B501256B
:1006300004001E232800294202D130BD013B21D3F2
:100640000800D8402842F9D0102A17D0102A07D81D
:10065000002A0AD00120082AEFD10F2BEDD804E0A0
:100660000120182AE9D1062BE7D82068416118211A
:1006700083688B43134383600020DEE70120072B50
:10068000F3D9DAE70120102AE0D1D6E7F0B5002847
:1006900008D0841DE37F411D022B05D00423C363D2
:1006A0000023CB770120F0BD0E250268466C13684D
:1006B000AB4313603368104D2B4033600123166841
:1006C0009E431660026C1B331A401B3B93400B4E3B
:1006D00077683B437360C26C836C5A60036D002B78
:1006E00005D01A682A401A60436D826D5A60012352
:1006F0000020E377C877D6E7FFFEFFFF0000024047
:10070000F8B50123411DCB77841DE27F022A03D077
:100710000422C2631800F8BD0E2602681568B543AE
:1007200015601568466C9D4315603268114D2A406E
:100730003260026C104E15001C221540AB407768E9
:100740003B437360C26C836C5A60036D002B06D010
:100750001A68084D2A401A60436D826D5A60012361
:10076000E3770023CB77836B002B00D098470020E2
:10077000D1E7C046FFFEFFFF0000024070B5084D04
:100780000400EB68184202D0E86001F07FF82B69A2
:10079000234203D020002C6101F07CF870BDC046DC
:1007A00000180240704770470222036870B5DD6888
:1007B0001E69040016420DD015420BD0053A1A618D
:1007C000043202779B699B0700D17CE000F0F2FFC6
:1007D0000023237704231E4212D01D4210D005228D
:1007E000236852421A61073222779A69C0239B001C
:1007F00020001A4200D16CE000F0DCFF00232377D8
:1008000008231E420FD01D420DD0092223685242F8
:100810001A610D322277DB6920009B075FD000F060
:10082000C9FF0023237710231E4211D01D420FD091
:100830001122236852421A6119322277DA69C023E1
:100840009B0020001A4250D000F0B4FF0023237711
:1008500001231E4208D01D4206D0022223685242C4
:1008600020001A6100F07BFF82239B011E4207D00B
:100870002B0605D52368204A20001A6100F041F8B4
:10088000F30507D52B0605D523681C4A20001A61FD
:1008900000F038F840231E4208D01D4206D0412205
:1008A0002368524220001A61FFF77DFF20231E4279
:1008B00008D01D4206D021222368524220001A612E
:1008C00000F01EF870BD00F071FF2000FFF76AFF16
:1008D0007EE700F06BFF2000FFF764FF8EE700F07B
:1008E00065FF2000FFF75EFF9BE700F05FFF200041
:1008F000FFF758FFAAE7C0467FDFFFFFFFFEFFFFBD
:10090000704770477047000030B5EFF31084012244
:1009100082F310880168134D0B682B400B6084F341
:100920001088EFF3108182F3108802680E4C9368F0
:100930002340936081F31088C36E012B0AD1EFF33B
:10094000108183F31088102402681368A343136096
:1009500081F31088030020228C331A600023C366C1
:10096000436730BDDFFEFFFFFEFFFFEF30B5EFF363
:100970001084012282F31088802501680B68AB4344
:100980000B6084F31088EFF3108182F3108840230A
:10099000026810680343136081F3108830BD0300C0
:1009A00088331B6810B5212B06D1020056321388FC
:1009B000002B02D1FFF7DAFF10BD036D01681C7830
:1009C00001338C6203651388013B9BB21380F3E70C
:1009D000030088331B6810B5212B06D10100563166
:1009E0000B88002B02D1FFF7C1FF10BD026D046818
:1009F00013880232DB05DB0DA36202650B88013B25
:100A00009BB20B80F1E70000030088331B6870B5D0
:100A1000212B21D10300010080246A331B88563129
:100A2000002B19D00A88002A17D1EFF31084013265
:100A300082F310880168114D8B682B408B6084F322
:100A40001088EFF3108182F3108840230268106849
:100A50000343136081F3108870BD0568EA69224280
:100A600008D0026D16780132AE6202650A88013A3A
:100A700092B20A80013B9BB2D2E7C046FFFF7FFFE4
:100A8000030088331B6870B5212B21D103000100BE
:100A900080246A331B885631002B19D00A88002A1B
:100AA00017D1EFF31084013282F310880168124DE0
:100AB0008B682B408B6084F31088EFF3108182F3F6
:100AC00010884023026810680343136081F3108884
:100AD00070BD0668F26922420AD0056D2A88023587
:100AE000D205D20DB26205650A88013A92B20A8037
:100AF000013B9BB2D0E7C046FFFF7FFF30B505004A
:100B000088352C6803000220202C38D101380029B8
:100B100035D0002A33D080209C684001844205D122
:100B20001869002802D10130014228D11965190045
:100B300054310A804A801A0000219032116021222B
:100B400080212A608022586E92054901904217D177
:100B5000154A8C4204D11969144A002900D0124A5E
:100B60009A67EFF31081012282F310881A688023BC
:100B700090681B040343936081F31088002030BD0C
:100B80000B4A8C4204D119690A4A002900D0084A4C
:100B90009A67EFF31081012282F310881A6880238C
:100BA000106803431360E7E7090A0008810A000898
:100BB0009F090008D1090008806A0022030010B5CF
:100BC0005E331A8000F0C4FF10BD7047F7B50168AE
:100BD000C34DCB6904000A6888682B4210D12025D8
:100BE0002B4200D19BE08026760515400640354318
:100BF00000D194E0636F2000002B00D085E085E0F9
:100C0000B84D05400095B84D009E1540354300D1C4
:100C100085E0250001269035334205D0D70503D560
:100C20000E622F683E432E60022633420CD0C70767
:100C30000AD527000E6290373E680197B446042615
:100C400067463E43019F3E60042633420CD0C707EF
:100C50000AD527000E6290373E680197B4460226F7
:100C600067463E43019F3E600826B446334209D0A2
:100C70002027009E1740374304D066460E622F6837
:100C80003E432E6080263601334206D0570104D5FC
:100C90000E6220212E68314329602968002935D051
:100CA00020210B420AD080235B05114003401943E9
:100CB00004D0636F002B01D02000984722682B6876
:100CC0004027966828223E40134020001E4322D031
:100CD000FFF71AFE23689B683B4218D0EFF31081A0
:100CE000012383F31088250004CD9368BB439360F0
:100CF00081F31088E86F002809D07C4B8363FFF7ED
:100D0000FFFC002802D0E86F836B9847F7BD2000F6
:100D100000F01EFFFAE700F01BFF2E60F6E7E56E1D
:100D2000012D00D0A4E01026334200D1A0E03242D1
:100D300000D19DE023000E6289685C3308001A88A8
:100D40004023184019425ED0201DC16F0F6879689A
:100D500089B200294DD091424BD222005E321180DF
:100D600020218C463A681140009161460A4232D1F6
:100D7000EFF3108785F3108821685D4E0A683240D2
:100D80000A6087F31088EFF3108785F310882168D5
:100D90008A68AA438A6087F31088EFF3108785F387
:100DA000108821688A689A438A6087F31088230034
:100DB00062468C331A60009BE366EFF3108185F383
:100DC000108822680F351368AB43136081F31088D5
:100DD000C06FFFF75BFC02232200236723005C3215
:100DE0005E331B881188C91A89B22000FFF7EDFE17
:100DF0008CE7914200D089E73B689B0600D485E7E9
:100E000002232367F1E721005E310B8809889BB23A
:100E1000002900D17AE7D21A91B2002900D175E7F2
:100E2000EFF3108785F310882268324E1368334041
:100E3000136087F31088EFF3108785F3108822681A
:100E40002D4E93683340936087F31088230020224F
:100E50008C331A60E0666067EFF3108085F31088CA
:100E6000102522681368AB43136080F31088C7E72E
:100E700080256D032B4206D0460204D520000D626A
:100E800000F0A2FE42E780210B4207D080252D040E
:100E900011402840014301D0A36FACE640210B4232
:100EA00016D00A4214D0EFF31080012383F3108888
:100EB000226813688B43136080F31088230020227C
:100EC00088331A6000232000A36700F03AFE1DE774
:100ED000190213D5510011D5200000F0DDFB15E7F4
:100EE0000F0800000100001020010004B90B0008E9
:100EF000FFFEFFFFDFFEFFFFFEFFFFEFDB0100D481
:100F000004E7002A00DB01E7200000F0C4FBFDE657
:100F100001008C310A68F8B50368222A5AD104000E
:100F200060345B6A2488826D234013700200836DF5
:100F30005E32013383651388013B9BB213801388B3
:100F40009CB2002B42D1EFF31086013383F310885B
:100F50000568234F2A683A402A6086F31088EFF329
:100F6000108683F310880568AA689A43AA6086F3FE
:100F7000108820220A6002680467526844671202DF
:100F80000AD5EFF3108183F310880268154C1368BB
:100F90002340136081F31088C36E012B17D1002208
:100FA000C266EFF3108483F3108801680F330A6878
:100FB0009A430A6084F310880268D169194200D00C
:100FC000136203005C331988FFF7FFFDF8BD00F0E2
:100FD000B1FDFBE7082299690A439A61F6E7C0462A
:100FE000DFFEFFFFFFFFFFFB02008C321168F8B548
:100FF0000368222959D104006034596A2488836D1A
:10100000214019800100023383655E310B88013B6A
:101010009BB20B800B889CB2002B42D1EFF3108661
:10102000013383F310880568224F2968394029600D
:1010300086F31088EFF3108683F310880568A9689B
:101040009943A96086F31088202111600268046723
:101050005268446712020AD5EFF3108183F31088B7
:101060000268154C13682340136081F31088C36E27
:10107000012B17D10022C266EFF3108483F310888E
:1010800001680F330A689A430A6084F31088026883
:10109000D169194200D0136203005C331988FFF74D
:1010A00094FDF8BD00F046FDFBE7082299690A436C
:1010B0009A61F6E7DFFEFFFFFFFFFFFBF0B50600DA
:1010C000036885B0DD691A688C3603929A6804005B
:1010D00001923268222A00D0C6E0030068331B88E0
:1010E000002B00D196E0030060331B88029320237D
:1010F0001D4200D18EE0236802995B6AA26D0B400D
:1011000013702200A36D5E320133A3651388013B87
:101110009BB2138007232268D5691D422FD0063B5E
:101120001D4208D00399C90505D5210013629031ED
:10113000086803430B6002231D4209D00199C907C7
:1011400006D52100136290310868DB1803430B6059
:1011500004231D4209D00199C90706D51362220054
:1011600090321168023B0B431360270090373B68B5
:10117000002B04D0200000F0EBFC00233B60230098
:101180005E331B8899B2002BB1D1EFF31085013388
:1011900083F310882068374F02683A40026085F375
:1011A0001088EFF3108583F310882068324F82682F
:1011B0003A40826085F310882022326022682167DD
:1011C0005268616712020AD5EFF3108183F3108829
:1011D00022682A4813680340136081F31088E36E85
:1011E000012B3DD10022E266EFF3108083F31088DB
:1011F00021680F330A689A430A6080F310882268D6
:10120000D169194200D0136223005C332000198891
:10121000FFF7DBFC23005E331B889AB2002B1DD046
:10122000230068331B88934218D9EFF31080012202
:1012300082F310882168124D8B682B408B6080F3FD
:101240001088104B6367EFF3108182F3108820231E
:10125000226810680343136081F3108805B0F0BD65
:10126000200000F067FCD5E7082299690A439A61DB
:10127000F4E7C046FFFEFFFFFEFFFFEFFFFFFFFBAF
:10128000FFFFFFEF110F0008F0B50600036885B0FF
:10129000DD691A688C3603929A68040001923268FC
:1012A000222A00D0C4E0030068331B88002B00D141
:1012B00094E0030060331B88029320231D4200D179
:1012C0008CE023680298596AA26D014011802100C8
:1012D0000232A2655E310A88013A92B20A80072280
:1012E000DD6915422FD0063A154208D00399C90589
:1012F00005D521001A629031086802430A60022273
:10130000154209D00199C90706D521001A6290310A
:101310000868921802430A600422154209D0019914
:10132000C90706D51A6222000223903211680B43C6
:101330001360270090373B68002B04D0200000F09A
:1013400007FC00233B6023005E331B8899B2002B0F
:10135000B3D1EFF31085013383F310882068374F42
:1013600002683A40026085F31088EFF3108583F33A
:1013700010882068324F82683A40826085F3108876
:1013800020223260226821675268616712020AD502
:10139000EFF3108183F3108822682A481368034012
:1013A000136081F31088E36E012B3DD10022E266C9
:1013B000EFF3108083F3108821680F330A689A4393
:1013C0000A6080F310882268D169194200D0136244
:1013D00023005C3320001988FFF7F7FB23005E33FE
:1013E0001B889AB2002B1DD0230068331B889342C0
:1013F00018D9EFF31080012282F310882168124D72
:101400008B682B408B6080F31088104B6367EFF381
:10141000108182F310882023226810680343136030
:1014200081F3108805B0F0BD200000F083FBD5E704
:10143000082299690A439A61F4E7C046FFFEFFFF5C
:10144000FEFFFFEFFFFFFFFBFFFFFFEFE90F0008CD
:101450000200F0B5843211780300022001291FD068
:101460001C0001218834223011702060EFF31086B7
:1014700081F310880C271D682868B843286086F31C
:101480001088EFF3108081F31088196808230D6825
:101490002B430B6080F31088202300202360107002
:1014A000F0BD0200F0B5843211780300022001295A
:1014B0001FD01C0001218834223011702060EFF30E
:1014C000108681F310880C271D682868B8432860AF
:1014D00086F31088EFF3108081F3108819680423D5
:1014E0000D682B430B6080F31088202300202360BD
:1014F0001070F0BD030088338C301B6800681843FF
:101500007047000003005C3370B5816580241A8049
:101510005A800023816843676401A1423CD103697A
:1015200059424B411B02FF33010060310B80030025
:101530000021903319602231043B1960EFF31084CD
:10154000012383F3108801688D682B438B6084F33B
:10155000108880258021466E84680369AD054901A5
:10156000AE423FD1050068352D8895423AD88C426D
:1015700033D1002B22D12C4B4367EFF31081012391
:1015800083F31088802302685B05906803439360AF
:1015900081F31088002070BD002905D10169FF2367
:1015A0000029C1D0803BBFE780246405A142BBD1A4
:1015B00001697F230029B7D0403BB5E71B4B436748
:1015C000EFF31081012383F310880268FF3314685E
:1015D0002343136081F31088CFE7144A4267002B3E
:1015E000CBD0EDE78C421AD1002B0AD1104B4367C8
:1015F000EFF31081012383F3108802681F33106812
:101600000AE00C4B4367EFF31081012383F310884A
:10161000026820331068FF3303431360B8E7054ABC
:101620004267002BE4D0EEE789120008BD100008E5
:10163000E90F0008110F000803008C3370B51C6817
:101640000223202C25D1013B002922D0002A20D0C2
:10165000802384685B019C4205D10369002B02D181
:101660000133194215D10023C36603685B681B026E
:101670000CD5EFF31085012383F3108880230468D1
:10168000DB0426683343236085F31088FFF73AFFB5
:101690000023180070BD70477047836810B50400C0
:1016A000002B02D0032201009847200010BD00004B
:1016B000044B10B51868002802D00430FFF774F806
:1016C00010BDC0460402002010B5FFF7F1FF10BDA9
:1016D000044B10B55868002802D00430FFF764F8B6
:1016E00010BDC04604020020044B10B598680028C5
:1016F00002D00430FFF758F810BDC04604020020A5
:10170000044B10B5D868002802D00430FFF74CF81D
:1017100010BDC04604020020044B10B51869002813
:1017200002D00430FFF740F810BDC046040200208C
:10173000836810B5002B01D100F0FCFDC368984709
:1017400010BD10B5002800D1FEE700F085F9006853
:10175000C36E002B02D06430FFF7EAFF10BD10B556
:10176000FFF7EFFF10BD030010B5002800D1FEE722
:10177000007F0138072812D8FEF7A2FC04161112C8
:10178000111111140124180000F066F924010068F9
:10179000643400198368002B01D0FFF7C9FF10BD26
:1017A0000324F0E70424EEE70224ECE710B5FFF78A
:1017B000DAFF10BD10B5FFF7D6FF10BD014B186062
:1017C0007047C0462C00002010B500F0C7FC10BDCB
:1017D00010B5FEF777FE10BD704710B5FEF766FE38
:1017E000FEF7E5FEFFF7F8FF10BD704780210E4BB6
:1017F0004905DA6B84B00A43DA63DA6B0A400121E7
:101800000192019A1A6C0A431A641A6C0A408021E8
:101810000292029A9A6B49010A439A639B6B0B40AE
:101820000393039B04B070470010024010B5FFF70C
:10183000DDFFFEF727FEFFF7D8FF00F0D7F90248DB
:10184000FEF7BAFE10BDC0460800002010B50C22FD
:101850000021040000F09CFC0023E36010BD0000A8
:10186000002310B501280BD114225A43064B101D3A
:10187000C0188168002902D09B181B69984710BDC9
:1018800001334008DBB2EDE71802002010B5FFF786
:10189000E7FF10BD10B5FFF7E3FF10BD10B5012045
:1018A000FEF76CFF0220FEF769FF10BD10B50420A3
:1018B000FEF764FF0820FEF761FF10BD70B50C2431
:1018C0001025A8B2013CFEF759FF6D00002CF8D19D
:1018D00070BD0000F8B505252E4F2F4C380025703F
:1018E000FFF7B4FF2D4E25753000FFF7AFFF230043
:1018F000013528332A481D70FFF7A8FF2300294827
:101900003C331D70FFF7A2FF2300013550332648FA
:101910001D706037FFF79AFF24483D706036FFF76F
:1019200095FF23483570FFF791FF230021488C3342
:101930001D70FFF78BFF23001F48A0331D70FFF7BA
:1019400085FF23001D48B4331D70FFF77FFF230080
:101950001B48C8331D70FFF779FF23001948DC339B
:101960001D70FFF773FF23002600F03316481D702B
:10197000FF36FFF76BFF15487571FFF767FF1448D7
:101980007576FFF763FF962312485B00E554FFF777
:101990005DFFF8BD1C02002018020020300200206C
:1019A00044020020580200206C0200208002002027
:1019B00094020020A8020020BC020020D0020020D7
:1019C000E4020020F80200200C0300202003002085
:1019D000340300204803002010B5044C143C201DA3
:1019E000FFF75BFE024B9C42F8D110BD580300206C
:1019F000180200200B685A1C01D1002002E083422B
:101A000001D1486870470C31F4E7002310B5421C3F
:101A100002D0FFF7EFFF0300180010BD4B68002B4A
:101A200002D10120404202E0834201D108687047A0
:101A30000C31F3E710B5002802D0FFF7EFFF10BD1F
:101A400001204042FBE700008022024B12059A6011
:101A50007047C04600ED00E00438704710B5B13063
:101A60000278064B9200D058FFF744FD222318401D
:101A7000223843425841C0B210BDC046580300202E
:101A800010B5B1300278064B9200D058FFF732FD06
:101A900021231840213843425841C0B210BDC046EE
:101AA0005803002070B50400150000281BD0030067
:101AB000060000209C331960B0363056FEF73EFD1C
:101AC00023002100C233B8311B880968B134207863
:101AD000C918054B8000C058AAB2FFF70FF80020C4
:101AE0003056FEF71FFD70BD5803002010B50028CA
:101AF0000BD00300A4331B68013306D1B130027848
:101B0000024B9200D058FFF7A3FC10BD58030020F1
:101B100010B500280BD00300A4331B68013306D195
:101B2000B1300278024B9200D058FFF7BAFC10BDDA
:101B300058030020030010B594331B6804389847FD
:101B400010BD030010B598331B680438984710BDCA
:101B50000122036810B5D96904000438114201D08C
:101B60001A620BE00222D9691142F9D10422D96923
:101B70001142F5D10822D9691142F1D1FFF76EFF68
:101B8000002805D1210001222000AE31FFF754FDCD
:101B900010BD000010B51B20FEF7FAFC024B1868C0
:101BA000FFF714F810BDC046580300201C2010B5E4
:101BB000FEF7EEFC034B5868002801D0FFF706F84B
:101BC00010BDC04658030020010010B50122AE31FF
:101BD000FFF732FD10BDFEE716220120014B404207
:101BE0001A6070470006002001207047072317493C
:101BF00010B50A689A43063B134380220B60144BCE
:101C0000520219680A431A6080229202196811422E
:101C1000FCD09A680F490A409A600722996891435C
:101C2000063A0A4338219A609A680A40082AFBD18A
:101C30009A68094909480A409A60FFF7BFFD0320E6
:101C4000FEF7F8FB002800D0FEE710BD00200240A0
:101C500000100240FFF0FFFFFF8FFFFF006CDC026F
:101C600010B500F049F810BD10B500E000BFFEF758
:101C7000E1FAFEF7E0FA00F02FF8FAE70D488546A2
:101C8000FFF7E2FE002103E00B4B5B5843500431A9
:101C90000A480B4B42189A42F6D30A4A02E0002344
:101CA00013600432084B9A42F9D300F079FAFFF737
:101CB000DBFFFEE700300020BC250008000000200C
:101CC000800000208000002008060020FEE710B5FC
:101CD000FFF77EFD10BD0000054B10B5002B06D0B0
:101CE000044800F00DF8002801D000E000BF10BD4E
:101CF000000000006003002010B5FFF797FD10BD45
:101D0000AA23A8215B00C35A4900405A4033181A3D
:101D10003F2318407047AA235B00C25A043BC35AB2
:101D20009A4203D0FC30C26CD05C70470120404224
:101D3000FBE7A923AB225B005200C35C805AC0B210
:101D4000834202D3C01A3F307047C01A0138FBE704
:101D500013B56B460268D971073354681900012224
:101D6000A04716BD0300010070B5C233C4311A8804
:101D70000C6812193F2422401A800200BE321288D9
:101D80001D880024AA4217D01D8840321C880B4BA6
:101D9000521BA4B21A4004D54023013A5B421A43B5
:101DA000013240231B1B9A4200D91A000A60012409
:101DB0000349FFF777FE6442200070BD3F000080BA
:101DC000651D0008F7B5036800919B680192040047
:101DD0009847A92340275B00E35A0500FF1A012317
:101DE00023742300FC33DB6B01330AD15E23FF3302
:101DF000E25C002A05D000222000E2549430FFF774
:101E000075FE236820009B6898470028F9D0019E42
:101E1000BE4227D8AE4225D8A92327005B00E35A4B
:101E2000FC37386D9A19C018402A34D8320000990E
:101E300000F0DCF93500A9225200A35A3F219B197A
:101E400026000B4094363000A352FFF719FE0028FD
:101E500006D1FC342A0030001549E565FFF722FE63
:101E60000198FEBDBD4200D93D0023682A005B6891
:101E7000009920009847009B20005B19009323687D
:101E8000761B9B689847A9235B00E75A133BFF3BEF
:101E90000500DF1BBCE74025ED1A2A00009900F081
:101EA000A5F9009B386D721B591900F09FF9C2E724
:101EB000651D000810B5914201D10121494204007D
:101EC000FC342364029BA26363640300AA221433DC
:101ED000E36400235200E16383520200543222651E
:101EE000AB2252006365835210BDF7B5037C04003A
:101EF0000D00002B16D0FEF7E5FAA927AB260190BE
:101F00007F007600E25BA35B9A420BD0002DFAD0F3
:101F1000FEF7D8FA019BC01A8542F3D8A923A25B29
:101F20005B00E252F7BD10B50021FFF7DEFF10BDE8
:101F3000CBB210B52E2B09D8E0220F4C9B00D2005B
:101F40000A4019591143FC30C16310BDC0220A4038
:101F5000C02A0ED1D22B0CD83F23084C0B409B003B
:101F60001B59E024044A9B009B58E400214019437C
:101F7000E9E701214942E6E7A82400085C240008BB
:101F8000CBB210B52E2B09D8E0220F4C9B00D2000B
:101F90000A4019591143FC30816310BDC0220A4028
:101FA000C02A0ED1D22B0CD83F23084C0B409B00EB
:101FB0001B59E024044A9B009B58E400214019432C
:101FC000E9E701214942E6E7A82400085C2400086B
:101FD0000023F0B585B04360FA239B0083601E4B5D
:101FE000050003600123FC355B42EB631B4B0400DF
:101FF0000E000392984218D1C7212000FFF798FFE6
:10200000C6212000FFF7BCFF0123039A5B42012A8F
:1020100000D1EB63009301232000AA6BE96B5B42C4
:10202000FFF748FF200005B0F0BD0D4A0D4F926943
:102030000D4B92003900D058FFF7E7FC8642DBD009
:102040000A493000FFF7F6FC3900E8633000FFF77B
:10205000F1FCA863D8E7C0466C25000860030020A7
:102060005C240008E4230008A82400085423000886
:102070000300FC33DB6B10B5040001330DD10368A2
:10208000DB6898475E23FF33E25C002A05D120001D
:102090000132E2549430FFF73BFD10BD10B504004F
:1020A000FFF7E6FFAA23A8225B005200E15AA35AD9
:1020B000994208D02100FC31C96CC85C3F21013332
:1020C0000B40A35210BD01204042FBE710B5002297
:1020D00002480349FFF77CFF10BDC04660030020A3
:1020E0000044004010B50400FFF7F1FDE0602368F4
:1020F00020005B699847002808DAFFF7E8FDE368ED
:10210000C01AA3689842F2D30120404210BDF8B52E
:1021100006000F0015000024AC4201D12000F8BDDC
:102120003000FFF7DFFF431CF8D038550134F3E7E8
:10213000F7B50F0016001D001C1E01900BD00024E7
:102140000198FFF7CFFF431C05D0B84203D03055AC
:102150000134A542F4D12000FEBD000010B5034BB0
:102160000100186800F04CF810BDC0463000002097
:1021700010B5024800F038F810BDC0460406002033
:1021800010B5024800F031F810BDC046040600202A
:1021900003008218934200D1704719700133F9E7A8
:1021A00070B500260C4C0D4D641BA410A64209D13D
:1021B000002600F0C3F80A4C0A4D641BA410A64286
:1021C00005D170BDB300EB5898470136EEE7B30078
:1021D000EB5898470136F2E7902500089025000853
:1021E000B02500089025000870477047002310B5FF
:1021F0009A4200D110BDCC5CC4540133F8E7000012
:1022000070B505000C1E10D0043C2368002B00DACA
:10221000E4182800FFF7ACFF1D4A1368002B05D116
:10222000636014602800FFF7ABFF70BDA34208D9BC
:10223000206821188B42F3D119685B680918216066
:10224000EEE71A005B68002B01D0A342F9D91168B0
:102250005018A0420BD12068091850181160834211
:10226000E0D118685B68411811605360DAE7A0425A
:1022700002D90C232B60D5E7206821188B4203D1AB
:1022800019685B680918216063605460CAE7C0463A
:10229000C4040020062010B500F02CF80120FFF740
:1022A0009AFC70B504000D001F2904D916230360A1
:1022B0000120404270BDC36B002B04D08A009B18E4
:1022C0001A68002A08D1200000F030F82A00010026
:1022D000200000F019F8EDE7012A09D0511C03D1C4
:1022E000162303600120E5E70021280019609047CC
:1022F0000020DFE710B5034B01001868FFF7D1FF9E
:1023000010BDC04630000020002370B5064D04000B
:10231000080011002B60FFF75FFC431C03D12B6802
:10232000002B00D0236070BD0006002010B5FFF721
:102330005BFC10BD10B5FFF7ADFF0000F8B5C0465F
:10234000F8BC08BC9E467047F8B5C046F8BC08BC4F
:042350009E467047EE
:1023540001000000003801401204000003000000E6
:102364000044004012010000050000000044004049
:10237400120100000800000000380140120E0000A5
:102384000A00000000380140120100000A30000079
:1023940000380140120100000D000000004400401C
:1023A400120400000E000000004400401209000066
:1023B4000F00000000440040120100001200000061
:1023C40000380140120000001700000000380140EE
:1023D40012000000FFFFFFFF0000000000000000EB
:1023E4000000000000380140120400000200000058
:1023F40000440040120100000400000000440040BA
:102404001201000008000000004400401201000016
:1024140009000000003801401201000009300000EA
:1024240000380140120100000E000000004400408A
:1024340012010000160000000038014012000000E4
:102444002E0000000038014012000000FFFFFFFFD3
:1024540000000000000000001D0000001E0000003D
:102464001F000000200000002100000022000000E6
:102474001A000000230000000D0000000C00000002
:102484000B000000280000001300000012000000F0
:102494000A000000260000000400000019000000EB
:1024A4002500000017000000160000000A000000CC
:1024B400130000001A0000001400000015000000C2
:1024C4000F000000090000002700000010000000B9
:1024D40007000000060000000500000019000000CD
:1024E4001800000030000000320000000E00000060
:1024F4000D000000260000002D0000002E0000004A
:1025040040000000410000001B0000000200000029
:102514003100000033000000000000000100000052
:1025240004000000110000000B0000000C0000007B
:10253400030000002F0000001C0000001200000037
:1025440043000000080000001F0000001E000000FF
:102554001D00000042000000093000000A300000A5
:102564000000000000000000511D0008C51D000807
:10257400331D0008271F0008011D00089D200008C6
:0C258400171D00080F210008312100087D
:10259000611C000815020008490200086D020008CD
:1025A000B502000819040008D5180008CD2000085D
:0C25B000ED010008D1020008D919000854
:1025BC000100000004000000003002400000000098
:1025CC0000000000000000000000000000000000FF
:1025DC00000000000000000001000000001BB7001C
:1025EC003400002000000000C8040020300500204A
:1025FC009805002000000000000000000000000012
:10260C0000000000000000000000000000000000BE
:10261C0000000000000000000000000000000000AE
:10262C00000000000000000000000000000000009E
:0400000508001C7D56
:00000001FF
